{
  "address": "0xf1223B1969AaB95176A4bA0cDa4B0bc7aEE8661c",
  "abi": [
    {
      "inputs": [
        {
          "internalType": "contract IERC20",
          "name": "_escrowToken",
          "type": "address"
        },
        {
          "internalType": "uint256",
          "name": "_fee",
          "type": "uint256"
        },
        {
          "internalType": "uint256",
          "name": "_minEthRequired",
          "type": "uint256"
        }
      ],
      "stateMutability": "nonpayable",
      "type": "constructor"
    },
    {
      "inputs": [
        {
          "internalType": "address",
          "name": "target",
          "type": "address"
        }
      ],
      "name": "AddressEmptyCode",
      "type": "error"
    },
    {
      "inputs": [
        {
          "internalType": "address",
          "name": "account",
          "type": "address"
        }
      ],
      "name": "AddressInsufficientBalance",
      "type": "error"
    },
    {
      "inputs": [],
      "name": "FailedInnerCall",
      "type": "error"
    },
    {
      "inputs": [
        {
          "internalType": "address",
          "name": "owner",
          "type": "address"
        }
      ],
      "name": "OwnableInvalidOwner",
      "type": "error"
    },
    {
      "inputs": [
        {
          "internalType": "address",
          "name": "account",
          "type": "address"
        }
      ],
      "name": "OwnableUnauthorizedAccount",
      "type": "error"
    },
    {
      "inputs": [
        {
          "internalType": "address",
          "name": "token",
          "type": "address"
        }
      ],
      "name": "SafeERC20FailedOperation",
      "type": "error"
    },
    {
      "anonymous": false,
      "inputs": [
        {
          "indexed": true,
          "internalType": "address",
          "name": "user",
          "type": "address"
        },
        {
          "indexed": false,
          "internalType": "uint256",
          "name": "amount",
          "type": "uint256"
        },
        {
          "indexed": false,
          "internalType": "enum Escrow.EscrowType",
          "name": "escrowType",
          "type": "uint8"
        },
        {
          "indexed": false,
          "internalType": "uint256",
          "name": "escrowId",
          "type": "uint256"
        }
      ],
      "name": "Deposited",
      "type": "event"
    },
    {
      "anonymous": false,
      "inputs": [
        {
          "indexed": false,
          "internalType": "uint256",
          "name": "oldMinEthRequired",
          "type": "uint256"
        },
        {
          "indexed": false,
          "internalType": "uint256",
          "name": "newMinEthRequired",
          "type": "uint256"
        }
      ],
      "name": "MinEthRequiredUpdated",
      "type": "event"
    },
    {
      "anonymous": false,
      "inputs": [
        {
          "indexed": true,
          "internalType": "address",
          "name": "previousOwner",
          "type": "address"
        },
        {
          "indexed": true,
          "internalType": "address",
          "name": "newOwner",
          "type": "address"
        }
      ],
      "name": "OwnershipTransferred",
      "type": "event"
    },
    {
      "anonymous": false,
      "inputs": [
        {
          "indexed": true,
          "internalType": "address",
          "name": "winner",
          "type": "address"
        },
        {
          "indexed": false,
          "internalType": "uint256",
          "name": "amount",
          "type": "uint256"
        },
        {
          "indexed": false,
          "internalType": "uint256",
          "name": "escrowId",
          "type": "uint256"
        }
      ],
      "name": "Released",
      "type": "event"
    },
    {
      "stateMutability": "payable",
      "type": "fallback"
    },
    {
      "inputs": [],
      "name": "depositEth",
      "outputs": [],
      "stateMutability": "payable",
      "type": "function"
    },
    {
      "inputs": [
        {
          "internalType": "uint256",
          "name": "amount",
          "type": "uint256"
        }
      ],
      "name": "depositToken",
      "outputs": [],
      "stateMutability": "payable",
      "type": "function"
    },
    {
      "inputs": [
        {
          "internalType": "uint256",
          "name": "",
          "type": "uint256"
        }
      ],
      "name": "escrowIds",
      "outputs": [
        {
          "internalType": "uint256",
          "name": "",
          "type": "uint256"
        }
      ],
      "stateMutability": "view",
      "type": "function"
    },
    {
      "inputs": [],
      "name": "escrowToken",
      "outputs": [
        {
          "internalType": "contract IERC20",
          "name": "",
          "type": "address"
        }
      ],
      "stateMutability": "view",
      "type": "function"
    },
    {
      "inputs": [
        {
          "internalType": "uint256",
          "name": "",
          "type": "uint256"
        }
      ],
      "name": "escrows",
      "outputs": [
        {
          "internalType": "uint256",
          "name": "id",
          "type": "uint256"
        },
        {
          "internalType": "enum Escrow.EscrowType",
          "name": "escrowType",
          "type": "uint8"
        },
        {
          "internalType": "address",
          "name": "depositor1",
          "type": "address"
        },
        {
          "internalType": "address",
          "name": "depositor2",
          "type": "address"
        },
        {
          "internalType": "uint256",
          "name": "amount",
          "type": "uint256"
        },
        {
          "internalType": "bool",
          "name": "isReleased",
          "type": "bool"
        },
        {
          "internalType": "string",
          "name": "gameData",
          "type": "string"
        }
      ],
      "stateMutability": "view",
      "type": "function"
    },
    {
      "inputs": [],
      "name": "fee",
      "outputs": [
        {
          "internalType": "uint256",
          "name": "",
          "type": "uint256"
        }
      ],
      "stateMutability": "view",
      "type": "function"
    },
    {
      "inputs": [],
      "name": "getActiveEscrows",
      "outputs": [
        {
          "internalType": "uint256[]",
          "name": "",
          "type": "uint256[]"
        }
      ],
      "stateMutability": "view",
      "type": "function"
    },
    {
      "inputs": [],
      "name": "getAllEscrows",
      "outputs": [
        {
          "internalType": "uint256[]",
          "name": "",
          "type": "uint256[]"
        }
      ],
      "stateMutability": "view",
      "type": "function"
    },
    {
      "inputs": [
        {
          "internalType": "address",
          "name": "userAddress",
          "type": "address"
        }
      ],
      "name": "getAllUserEscrows",
      "outputs": [
        {
          "internalType": "uint256[]",
          "name": "",
          "type": "uint256[]"
        }
      ],
      "stateMutability": "view",
      "type": "function"
    },
    {
      "inputs": [
        {
          "internalType": "uint256",
          "name": "escrowId",
          "type": "uint256"
        }
      ],
      "name": "joinEscrow",
      "outputs": [],
      "stateMutability": "payable",
      "type": "function"
    },
    {
      "inputs": [
        {
          "internalType": "bytes",
          "name": "data",
          "type": "bytes"
        }
      ],
      "name": "lzReceive",
      "outputs": [],
      "stateMutability": "nonpayable",
      "type": "function"
    },
    {
      "inputs": [],
      "name": "minEthRequired",
      "outputs": [
        {
          "internalType": "uint256",
          "name": "",
          "type": "uint256"
        }
      ],
      "stateMutability": "view",
      "type": "function"
    },
    {
      "inputs": [],
      "name": "owner",
      "outputs": [
        {
          "internalType": "address",
          "name": "",
          "type": "address"
        }
      ],
      "stateMutability": "view",
      "type": "function"
    },
    {
      "inputs": [
        {
          "internalType": "address payable",
          "name": "recipient",
          "type": "address"
        }
      ],
      "name": "recoverFunds",
      "outputs": [],
      "stateMutability": "nonpayable",
      "type": "function"
    },
    {
      "inputs": [
        {
          "internalType": "uint256",
          "name": "escrowId",
          "type": "uint256"
        },
        {
          "internalType": "address payable",
          "name": "winner",
          "type": "address"
        },
        {
          "internalType": "string",
          "name": "gameData",
          "type": "string"
        }
      ],
      "name": "releaseFunds",
      "outputs": [],
      "stateMutability": "nonpayable",
      "type": "function"
    },
    {
      "inputs": [],
      "name": "renounceOwnership",
      "outputs": [],
      "stateMutability": "nonpayable",
      "type": "function"
    },
    {
      "inputs": [
        {
          "internalType": "address",
          "name": "_lz",
          "type": "address"
        },
        {
          "internalType": "uint32",
          "name": "_dstEid",
          "type": "uint32"
        }
      ],
      "name": "setLZ",
      "outputs": [],
      "stateMutability": "nonpayable",
      "type": "function"
    },
    {
      "inputs": [
        {
          "internalType": "address",
          "name": "newOwner",
          "type": "address"
        }
      ],
      "name": "transferOwnership",
      "outputs": [],
      "stateMutability": "nonpayable",
      "type": "function"
    },
    {
      "inputs": [
        {
          "internalType": "uint256",
          "name": "_minEthRequired",
          "type": "uint256"
        }
      ],
      "name": "updateMinEthRequired",
      "outputs": [],
      "stateMutability": "nonpayable",
      "type": "function"
    },
    {
      "inputs": [
        {
          "internalType": "address",
          "name": "",
          "type": "address"
        },
        {
          "internalType": "uint256",
          "name": "",
          "type": "uint256"
        }
      ],
      "name": "userEscrows",
      "outputs": [
        {
          "internalType": "uint256",
          "name": "",
          "type": "uint256"
        }
      ],
      "stateMutability": "view",
      "type": "function"
    },
    {
      "stateMutability": "payable",
      "type": "receive"
    }
  ],
  "transactionHash": "0xfe6f56df86e1c7904d1683f6d7fe720ee3dace882a52e0faf03e2075fbb0a078",
  "args": [
    "0x2B402F4aec180Fb4188Df7a703d3861f0137855B",
    7,
    7
  ],
  "numDeployments": 1,
  "solcInputHash": "6580cc2eaed9df358031f0964f8b4aed",
  "bytecode": "0x60a06040523480156200001157600080fd5b5060405162002c2438038062002c24833981016040819052620000349162000134565b33806200005c57604051631e4fbdf760e01b8152600060048201526024015b60405180910390fd5b6200006781620000e4565b506064821115620000ca5760405162461bcd60e51b815260206004820152602660248201527f466565206d757374206265206c657373207468616e206f7220657175616c20746044820152656f203130302560d01b606482015260840162000053565b6001600160a01b0390921660805260015560035562000179565b600080546001600160a01b038381166001600160a01b0319831681178455604051919092169283917f8be0079c531659141344cd1fd0a4f28419497f9722a3daafe3b4186f6b6457e09190a35050565b6000806000606084860312156200014a57600080fd5b83516001600160a01b03811681146200016257600080fd5b602085015160409095015190969495509392505050565b608051612a5e620001c66000396000818161022c015281816107cd0152818161089b01528181610cb101528181610ce6015281816115b1015281816119d70152611a5f0152612a5e6000f3fe6080604052600436106101235760003560e01c8063715018a6116100a05780639a6ac36f116100645780639a6ac36f1461037a578063be67763f1461038f578063ddca3f43146103af578063e72f6e30146103c5578063f2fde38b146103e55761015a565b8063715018a6146102e7578063786f1295146102fc5780637f944dd01461031c5780638c438bf01461033c5780638da5cb5b1461035c5761015a565b80633dac1498116100e75780633dac14981461026657806343074c7f14610286578063439370b1146102aa578063475cc88e146102b25780636215be77146102d45761015a565b8063012f52ee1461018b57806308bbba1b146101c757806309393827146101e75780632f386f72146101fa5780632fe319da1461021a5761015a565b3661015a576101586040518060400160405280600e81526020016d1696969696903932b1b2b4bb329d60911b81525034610405565b005b6101586040518060400160405280600f81526020016e1696969696903330b6363130b1b59d60891b81525034610405565b34801561019757600080fd5b506101ab6101a6366004612049565b61044e565b6040516101be97969594939291906120ea565b60405180910390f35b3480156101d357600080fd5b506101586101e23660046121a3565b61052b565b6101586101f5366004612049565b610a32565b34801561020657600080fd5b506101586102153660046121ff565b610d93565b34801561022657600080fd5b5061024e7f000000000000000000000000000000000000000000000000000000000000000081565b6040516001600160a01b0390911681526020016101be565b34801561027257600080fd5b50610158610281366004612049565b611084565b34801561029257600080fd5b5061029c60035481565b6040519081526020016101be565b6101586110d1565b3480156102be57600080fd5b506102c7611364565b6040516101be9190612241565b6101586102e2366004612049565b6114b4565b3480156102f357600080fd5b506101586117ab565b34801561030857600080fd5b5061029c610317366004612049565b6117bf565b34801561032857600080fd5b5061029c610337366004612295565b6117e0565b34801561034857600080fd5b506102c76103573660046122c1565b611811565b34801561036857600080fd5b506000546001600160a01b031661024e565b34801561038657600080fd5b506102c761187d565b34801561039b57600080fd5b506101586103aa3660046122de565b6118d5565b3480156103bb57600080fd5b5061029c60015481565b3480156103d157600080fd5b506101586103e03660046122c1565b611922565b3480156103f157600080fd5b506101586104003660046122c1565b611a86565b61044a828260405160240161041b929190612320565b60408051601f198184030181529190526020810180516001600160e01b0316632d839cb360e21b179052611ac4565b5050565b6004602081905260009182526040909120805460018201546002830154600384015494840154600585018054949660ff808616976101009096046001600160a01b039081169795169591949316929091906104a890612342565b80601f01602080910402602001604051908101604052809291908181526020018280546104d490612342565b80156105215780601f106104f657610100808354040283529160200191610521565b820191906000526020600020905b81548152906001019060200180831161050457829003601f168201915b5050505050905087565b610533611acd565b60008481526004602081905260409091209081015460ff16156105965760405162461bcd60e51b8152602060048201526016602482015275119d5b991cc8185b1c9958591e481c995b19585cd95960521b60448201526064015b60405180910390fd5b60008160030154116105e05760405162461bcd60e51b81526020600482015260136024820152724e6f2066756e647320746f2072656c6561736560681b604482015260640161058d565b60028101546001600160a01b031661063a5760405162461bcd60e51b815260206004820152601760248201527f457363726f77206e6f742066756c6c792066756e646564000000000000000000604482015260640161058d565b60006064600154836003015460026106529190612392565b61065c9190612392565b61066691906123a9565b90506000818360030154600261067c9190612392565b61068691906123cb565b60048401805460ff191660011790559050600583016106a6858783612444565b50600060018085015460ff16908111156106c2576106c2612062565b036107b657804710156107175760405162461bcd60e51b815260206004820152601860248201527f496e73756666696369656e74204554482062616c616e63650000000000000000604482015260640161058d565b6000866001600160a01b03168260405160006040518083038185875af1925050503d8060008114610764576040519150601f19603f3d011682016040523d82523d6000602084013e610769565b606091505b50509050806107b05760405162461bcd60e51b8152602060048201526013602482015272115512081d1c985b9cd9995c8819985a5b1959606a1b604482015260640161058d565b506108c2565b6040516370a0823160e01b815230600482015281907f00000000000000000000000000000000000000000000000000000000000000006001600160a01b0316906370a0823190602401602060405180830381865afa15801561081c573d6000803e3d6000fd5b505050506040513d601f19601f820116820180604052508101906108409190612505565b101561088e5760405162461bcd60e51b815260206004820181905260248201527f496e73756666696369656e7420455243323020746f6b656e2062616c616e6365604482015260640161058d565b6108c26001600160a01b037f0000000000000000000000000000000000000000000000000000000000000000168783611afa565b6040805160e08101909152835481526001808501546109e592918691602084019160ff909116908111156108f8576108f8612062565b600181111561090957610909612062565b815260018201546001600160a01b0361010090910481166020830152600283015416604082015260038201546060820152600482015460ff161515608082015260058201805460a09092019161095e90612342565b80601f016020809104026020016040519081016040528092919081815260200182805461098a90612342565b80156109d75780601f106109ac576101008083540402835291602001916109d7565b820191906000526020600020905b8154815290600101906020018083116109ba57829003601f168201915b505050505081525050611b59565b60408051828152602081018990526001600160a01b038816917f82e416ba72d10e709b5de7ac16f5f49ff1d94f22d55bf582d353d3c313a1e8dd910160405180910390a250505050505050565b6000818152600460205260409020600181015461010090046001600160a01b0316610a935760405162461bcd60e51b8152602060048201526011602482015270125b9d985b1a5908195cd8dc9bddc81251607a1b604482015260640161058d565b60028101546001600160a01b031615610aee5760405162461bcd60e51b815260206004820152601b60248201527f457363726f7753747275637420616c7265616479206a6f696e65640000000000604482015260640161058d565b6001810154336101009091046001600160a01b031603610b505760405162461bcd60e51b815260206004820152601b60248201527f43616e6e6f74206a6f696e20796f7572206f776e20657363726f770000000000604482015260640161058d565b6000808060018085015460ff1690811115610b6d57610b6d612062565b03610c3d5782600301543414610bc55760405162461bcd60e51b815260206004820152601b60248201527f496e636f727265637420457468657220616d6f756e742073656e740000000000604482015260640161058d565b606460015434610bd59190612392565b610bdf91906123a9565b9150610beb82346123cb565b9050610bff6000546001600160a01b031690565b6001600160a01b03166108fc839081150290604051600060405180830381858888f19350505050158015610c37573d6000803e3d6000fd5b50610d0e565b600354341015610c5f5760405162461bcd60e51b815260040161058d9061251e565b60646001548460030154610c739190612392565b610c7d91906123a9565b9150818360030154610c8f91906123cb565b9050610cd933610ca76000546001600160a01b031690565b6001600160a01b037f000000000000000000000000000000000000000000000000000000000000000016919085611db6565b610d0e6001600160a01b037f000000000000000000000000000000000000000000000000000000000000000016333084611db6565b6002830180546001600160a01b031916339081179091556000818152600560209081526040808320805460018181018355918552929093209091018790559085015490517f658ea7d02788018eff5425fa04c446062f80a2026f9899163e3a221cc30d093691610d8591859160ff1690899061257b565b60405180910390a250505050565b6008546001600160a01b03163314610daa57600080fd5b6000610db88284018461269d565b805160009081526004602090815260409091208251815590820151600180830180549495508594909160ff19909116908381811115610df957610df9612062565b02179055506040820151600182018054610100600160a81b0319166101006001600160a01b039384160217905560608301516002830180546001600160a01b031916919092161790556080820151600382015560a082015160048201805460ff191691151591909117905560c08201516005820190610e789082612762565b50905050610eda6006805480602002602001604051908101604052809291908181526020018280548015610ecb57602002820191906000526020600020905b815481526020019060010190808311610eb7575b50505050508260000151611df5565b610f14578051600680546001810182556000919091527ff652222313e28459528d920b65115c16c04f3efc82aaedc97be59f3f377c0d3f01555b6040808201516001600160a01b0316600090815260056020908152908290208054835181840281018401909452808452610f859392830182828015610ecb5760200282019190600052602060002090815481526020019060010190808311610eb75750505050508260000151611df5565b610fbb576040808201516001600160a01b0316600090815260056020908152918120835181546001810183559183529290912001555b60608101516001600160a01b031615801590611046575060608101516001600160a01b031660009081526005602090815260409182902080548351818402810184019094528084526110449392830182828015610ecb5760200282019190600052602060002090815481526020019060010190808311610eb75750505050508260000151611df5565b155b1561107f5760608101516001600160a01b0316600090815260056020908152604082208351815460018101835591845291909220909101555b505050565b61108c611acd565b600380549082905560408051828152602081018490527f97e4b33265058511cea22667f6694ade58e24a9e7dbcd3e0d815670aed62d136910160405180910390a15050565b600034116111215760405162461bcd60e51b815260206004820152601c60248201527f4d757374206465706f736974206d6f7265207468616e20302045544800000000604482015260640161058d565b60006064600154346111339190612392565b61113d91906123a9565b9050600061114b82346123cb565b905061115f6000546001600160a01b031690565b6001600160a01b03166108fc839081150290604051600060405180830381858888f19350505050158015611197573d6000803e3d6000fd5b5060028054600091826111a983612822565b91905055905060006040518060e00160405280838152602001600060018111156111d5576111d5612062565b81523360208083019190915260006040808401829052346060850152608084018290528051808401825282815260a09094019390935285815260048252919091208251815590820151600182810180549495508594909160ff1990911690838181111561124457611244612062565b02179055506040820151600182018054610100600160a81b0319166101006001600160a01b039384160217905560608301516002830180546001600160a01b031916919092161790556080820151600382015560a082015160048201805460ff191691151591909117905560c082015160058201906112c39082612762565b505033600090815260056020908152604082208054600181810183559184529183209091018590556006805491820181559091527ff652222313e28459528d920b65115c16c04f3efc82aaedc97be59f3f377c0d3f018390555061132681611b59565b336001600160a01b03167f658ea7d02788018eff5425fa04c446062f80a2026f9899163e3a221cc30d093684600085604051610d859392919061257b565b60606000805b6006548110156113c757600460006006838154811061138b5761138b61283b565b6000918252602080832090910154835282019290925260400190206004015460ff166113bf57816113bb81612822565b9250505b60010161136a565b5060008167ffffffffffffffff8111156113e3576113e36123de565b60405190808252806020026020018201604052801561140c578160200160208202803683370190505b5090506000805b6006548110156114ab5760046000600683815481106114345761143461283b565b6000918252602080832090910154835282019290925260400190206004015460ff166114a3576006818154811061146d5761146d61283b565b906000526020600020015483838151811061148a5761148a61283b565b60209081029190910101528161149f81612822565b9250505b600101611413565b50909392505050565b600081116115045760405162461bcd60e51b815260206004820152601f60248201527f4d757374206465706f736974206d6f7265207468616e203020746f6b656e7300604482015260640161058d565b6003543410156115265760405162461bcd60e51b815260040161058d9061251e565b600080546003546040516001600160a01b039092169281156108fc029290818181858888f19350505050158015611561573d6000803e3d6000fd5b5060006064600154836115749190612392565b61157e91906123a9565b9050600061158c82846123cb565b90506115a433610ca76000546001600160a01b031690565b6115d96001600160a01b037f000000000000000000000000000000000000000000000000000000000000000016333084611db6565b60028054600091826115ea83612822565b91905055905060006040518060e0016040528083815260200160018081111561161557611615612062565b8152336020808301919091526000604080840182905260608401889052608084018290528051808401825282815260a09094019390935285815260048252919091208251815590820151600182810180549495508594909160ff1990911690838181111561168557611685612062565b02179055506040820151600182018054610100600160a81b0319166101006001600160a01b039384160217905560608301516002830180546001600160a01b031916919092161790556080820151600382015560a082015160048201805460ff191691151591909117905560c082015160058201906117049082612762565b5090505061171181611b59565b33600081815260056020908152604080832080546001818101835591855292842090920186905560068054808401825593527ff652222313e28459528d920b65115c16c04f3efc82aaedc97be59f3f377c0d3f90920185905590517f658ea7d02788018eff5425fa04c446062f80a2026f9899163e3a221cc30d09369161179c91879190879061257b565b60405180910390a25050505050565b6117b3611acd565b6117bd6000611e3e565b565b600681815481106117cf57600080fd5b600091825260209091200154905081565b600560205281600052604060002081815481106117fc57600080fd5b90600052602060002001600091509150505481565b6001600160a01b03811660009081526005602090815260409182902080548351818402810184019094528084526060939283018282801561187157602002820191906000526020600020905b81548152602001906001019080831161185d575b50505050509050919050565b606060068054806020026020016040519081016040528092919081815260200182805480156118cb57602002820191906000526020600020905b8154815260200190600101908083116118b7575b5050505050905090565b6118dd611acd565b600780546001600160a01b039093166001600160a01b0319909316831790556008805463ffffffff909216600160a01b026001600160c01b0319909216909217179055565b61192a611acd565b6001600160a01b0381166119805760405162461bcd60e51b815260206004820152601960248201527f496e76616c696420726563697069656e74206164647265737300000000000000604482015260640161058d565b4780156119bf576040516001600160a01b0383169082156108fc029083906000818181858888f193505050501580156119bd573d6000803e3d6000fd5b505b6040516370a0823160e01b81523060048201526000907f00000000000000000000000000000000000000000000000000000000000000006001600160a01b0316906370a0823190602401602060405180830381865afa158015611a26573d6000803e3d6000fd5b505050506040513d601f19601f82011682018060405250810190611a4a9190612505565b9050801561107f5761107f6001600160a01b037f0000000000000000000000000000000000000000000000000000000000000000168483611afa565b611a8e611acd565b6001600160a01b038116611ab857604051631e4fbdf760e01b81526000600482015260240161058d565b611ac181611e3e565b50565b611ac181611e8e565b6000546001600160a01b031633146117bd5760405163118cdaa760e01b815233600482015260240161058d565b6040516001600160a01b0383811660248301526044820183905261107f91859182169063a9059cbb906064015b604051602081830303815290604052915060e01b6020820180516001600160e01b038381831617835250505050611eaf565b600081604051602001611b6c9190612851565b60408051601f19818403018152828252600754634d78e9ad60e11b8452825191945060009384936001600160a01b0390921692639af1d35a926004808401939192918290030181865afa158015611bc7573d6000803e3d6000fd5b505050506040513d601f19601f82011682018060405250810190611beb91906128e1565b600754600854604051636391215960e11b81526001600160801b038086166004830152841660248201529395509193506000926001600160a01b039091169163eba0070791600160a01b90910463ffffffff16908790849063c72242b290604401600060405180830381865afa158015611c69573d6000803e3d6000fd5b505050506040513d6000823e601f3d908101601f19168201604052611c919190810190612914565b60006040518563ffffffff1660e01b8152600401611cb2949392919061298b565b602060405180830381865afa158015611ccf573d6000803e3d6000fd5b505050506040513d601f19601f82011682018060405250810190611cf39190612505565b905080341015611d3a5760405162461bcd60e51b81526020600482015260126024820152716c7a3a206e6f7420656e6f7567682067617360701b604482015260640161058d565b6007546008546040516302ab43b360e21b81526001600160a01b0390921691630aad0ecc918491611d7d91600160a01b900463ffffffff169089906004016129d0565b6000604051808303818588803b158015611d9657600080fd5b505af1158015611daa573d6000803e3d6000fd5b50505050505050505050565b6040516001600160a01b038481166024830152838116604483015260648201839052611def9186918216906323b872dd90608401611b27565b50505050565b600080805b8451811015611e345783858281518110611e1657611e1661283b565b602002602001015103611e2c5760019150611e34565b600101611dfa565b5090505b92915050565b600080546001600160a01b038381166001600160a01b0319831681178455604051919092169283917f8be0079c531659141344cd1fd0a4f28419497f9722a3daafe3b4186f6b6457e09190a35050565b60006a636f6e736f6c652e6c6f679050600080835160208501845afa505050565b6000611ec46001600160a01b03841683611f12565b90508051600014158015611ee9575080806020019051810190611ee791906129ef565b155b1561107f57604051635274afe760e01b81526001600160a01b038416600482015260240161058d565b6060611f2083836000611f27565b9392505050565b606081471015611f4c5760405163cd78605960e01b815230600482015260240161058d565b600080856001600160a01b03168486604051611f689190612a0c565b60006040518083038185875af1925050503d8060008114611fa5576040519150601f19603f3d011682016040523d82523d6000602084013e611faa565b606091505b5091509150611fba868383611fc4565b9695505050505050565b606082611fd957611fd482612020565b611f20565b8151158015611ff057506001600160a01b0384163b155b1561201957604051639996b31560e01b81526001600160a01b038516600482015260240161058d565b5080611f20565b8051156120305780518082602001fd5b604051630a12f52160e11b815260040160405180910390fd5b60006020828403121561205b57600080fd5b5035919050565b634e487b7160e01b600052602160045260246000fd5b6002811061209657634e487b7160e01b600052602160045260246000fd5b9052565b60005b838110156120b557818101518382015260200161209d565b50506000910152565b600081518084526120d681602086016020860161209a565b601f01601f19169290920160200192915050565b8781526120fa6020820188612078565b6001600160a01b038681166040830152851660608201526080810184905282151560a082015260e060c08201819052600090612138908301846120be565b9998505050505050505050565b6001600160a01b0381168114611ac157600080fd5b60008083601f84011261216c57600080fd5b50813567ffffffffffffffff81111561218457600080fd5b60208301915083602082850101111561219c57600080fd5b9250929050565b600080600080606085870312156121b957600080fd5b8435935060208501356121cb81612145565b9250604085013567ffffffffffffffff8111156121e757600080fd5b6121f38782880161215a565b95989497509550505050565b6000806020838503121561221257600080fd5b823567ffffffffffffffff81111561222957600080fd5b6122358582860161215a565b90969095509350505050565b6020808252825182820181905260009190848201906040850190845b818110156122795783518352928401929184019160010161225d565b50909695505050505050565b803561229081612145565b919050565b600080604083850312156122a857600080fd5b82356122b381612145565b946020939093013593505050565b6000602082840312156122d357600080fd5b8135611f2081612145565b600080604083850312156122f157600080fd5b82356122fc81612145565b9150602083013563ffffffff8116811461231557600080fd5b809150509250929050565b60408152600061233360408301856120be565b90508260208301529392505050565b600181811c9082168061235657607f821691505b60208210810361237657634e487b7160e01b600052602260045260246000fd5b50919050565b634e487b7160e01b600052601160045260246000fd5b8082028115828204841417611e3857611e3861237c565b6000826123c657634e487b7160e01b600052601260045260246000fd5b500490565b81810381811115611e3857611e3861237c565b634e487b7160e01b600052604160045260246000fd5b601f82111561107f576000816000526020600020601f850160051c8101602086101561241d5750805b601f850160051c820191505b8181101561243c57828155600101612429565b505050505050565b67ffffffffffffffff83111561245c5761245c6123de565b6124708361246a8354612342565b836123f4565b6000601f8411600181146124a4576000851561248c5750838201355b600019600387901b1c1916600186901b1783556124fe565b600083815260209020601f19861690835b828110156124d557868501358255602094850194600190920191016124b5565b50868210156124f25760001960f88860031b161c19848701351681555b505060018560011b0183555b5050505050565b60006020828403121561251757600080fd5b5051919050565b60208082526038908201527f4d7573742073656e64206174206c6561737420746865206d696e696d756d204560408201527f544820726571756972656420666f722067617320666565730000000000000000606082015260800190565b8381526060810161258f6020830185612078565b826040830152949350505050565b60405160e0810167ffffffffffffffff811182821017156125c0576125c06123de565b60405290565b604051601f8201601f1916810167ffffffffffffffff811182821017156125ef576125ef6123de565b604052919050565b80356002811061229057600080fd5b8015158114611ac157600080fd5b803561229081612606565b600067ffffffffffffffff821115612639576126396123de565b50601f01601f191660200190565b600082601f83011261265857600080fd5b813561266b6126668261261f565b6125c6565b81815284602083860101111561268057600080fd5b816020850160208301376000918101602001919091529392505050565b6000602082840312156126af57600080fd5b813567ffffffffffffffff808211156126c757600080fd5b9083019060e082860312156126db57600080fd5b6126e361259d565b823581526126f3602084016125f7565b602082015261270460408401612285565b604082015261271560608401612285565b60608201526080830135608082015261273060a08401612614565b60a082015260c08301358281111561274757600080fd5b61275387828601612647565b60c08301525095945050505050565b815167ffffffffffffffff81111561277c5761277c6123de565b6127908161278a8454612342565b846123f4565b602080601f8311600181146127c557600084156127ad5750858301515b600019600386901b1c1916600185901b17855561243c565b600085815260208120601f198616915b828110156127f4578886015182559484019460019091019084016127d5565b50858210156128125787850151600019600388901b60f8161c191681555b5050505050600190811b01905550565b6000600182016128345761283461237c565b5060010190565b634e487b7160e01b600052603260045260246000fd5b6020815281516020820152600060208301516128706040840182612078565b50604083015160018060a01b0380821660608501528060608601511660808501525050608083015160a083015260a0830151151560c083015260c083015160e0808401526128c26101008401826120be565b949350505050565b80516001600160801b038116811461229057600080fd5b600080604083850312156128f457600080fd5b6128fd836128ca565b915061290b602084016128ca565b90509250929050565b60006020828403121561292657600080fd5b815167ffffffffffffffff81111561293d57600080fd5b8201601f8101841361294e57600080fd5b805161295c6126668261261f565b81815285602083850101111561297157600080fd5b61298282602083016020860161209a565b95945050505050565b63ffffffff851681526080602082015260006129aa60808301866120be565b82810360408401526129bc81866120be565b915050821515606083015295945050505050565b63ffffffff831681526040602082015260006128c260408301846120be565b600060208284031215612a0157600080fd5b8151611f2081612606565b60008251612a1e81846020870161209a565b919091019291505056fea26469706673582212206c0a14a66a8a23a79c045e98111916cedac0a0d4df0b1765cffc84b06e8d00cf64736f6c63430008160033",
  "devdoc": {
    "details": "This contract allows two users to deposit tokens into escrow, play a game off-chain, and have the winner receive the funds minus a fee.",
    "errors": {
      "AddressEmptyCode(address)": [
        {
          "details": "There's no code at `target` (it is not a contract)."
        }
      ],
      "AddressInsufficientBalance(address)": [
        {
          "details": "The ETH balance of the account is not enough to perform the operation."
        }
      ],
      "FailedInnerCall()": [
        {
          "details": "A call to an address target failed. The target may have reverted."
        }
      ],
      "OwnableInvalidOwner(address)": [
        {
          "details": "The owner is not a valid owner account. (eg. `address(0)`)"
        }
      ],
      "OwnableUnauthorizedAccount(address)": [
        {
          "details": "The caller account is not authorized to perform an operation."
        }
      ],
      "SafeERC20FailedOperation(address)": [
        {
          "details": "An operation with an ERC20 token failed."
        }
      ]
    },
    "events": {
      "Deposited(address,uint256,uint8,uint256)": {
        "details": "Emitted when a deposit is made.",
        "params": {
          "amount": "The amount of the deposit.",
          "escrowId": "The ID of the escrow.",
          "escrowType": "The type of the deposit (ETH or ERC20).",
          "user": "The address of the user making the deposit."
        }
      },
      "MinEthRequiredUpdated(uint256,uint256)": {
        "details": "Emitted when the minimum ETH required is updated.",
        "params": {
          "newMinEthRequired": "The new minimum ETH required.",
          "oldMinEthRequired": "The old minimum ETH required."
        }
      },
      "Released(address,uint256,uint256)": {
        "details": "Emitted when funds are released to the winner.",
        "params": {
          "amount": "The amount released to the winner.",
          "escrowId": "The ID of the escrow.",
          "winner": "The address of the winner."
        }
      }
    },
    "kind": "dev",
    "methods": {
      "constructor": {
        "details": "Constructor that initializes the contract with a specific ERC20 token, fee, and initial owner.",
        "params": {
          "_escrowToken": "The address of the ERC20 token to be used in the escrow.",
          "_fee": "The fee percentage (e.g., 1 for 1%).",
          "_minEthRequired": "The minimum amount of ETH required for gas."
        }
      },
      "depositEth()": {
        "details": "User can deposit ETH, which will be tracked in the contract."
      },
      "depositToken(uint256)": {
        "details": "User can deposit ERC20 tokens, which will be tracked in the contract.",
        "params": {
          "amount": "The amount of tokens to deposit."
        }
      },
      "getActiveEscrows()": {
        "details": "An escrow is considered active if the funds have not been released.",
        "returns": {
          "_0": "activeEscrowIds An array of active escrow IDs."
        }
      },
      "joinEscrow(uint256)": {
        "params": {
          "escrowId": "The ID of the escrow to join."
        }
      },
      "owner()": {
        "details": "Returns the address of the current owner."
      },
      "recoverFunds(address)": {
        "params": {
          "recipient": "The address to send the recovered funds to."
        }
      },
      "releaseFunds(uint256,address,string)": {
        "details": "This function can only be called by the owner.",
        "params": {
          "escrowId": "The ID of the escrow to release.",
          "gameData": "The data from the game that was played.",
          "winner": "The address of the winner."
        }
      },
      "renounceOwnership()": {
        "details": "Leaves the contract without owner. It will not be possible to call `onlyOwner` functions. Can only be called by the current owner. NOTE: Renouncing ownership will leave the contract without an owner, thereby disabling any functionality that is only available to the owner."
      },
      "transferOwnership(address)": {
        "details": "Transfers ownership of the contract to a new account (`newOwner`). Can only be called by the current owner."
      },
      "updateMinEthRequired(uint256)": {
        "params": {
          "_minEthRequired": "The new minimum ETH required."
        }
      }
    },
    "title": "GameEscrow",
    "version": 1
  },
  "userdoc": {
    "kind": "user",
    "methods": {
      "depositEth()": {
        "notice": "Deposits native Ether into escrow."
      },
      "depositToken(uint256)": {
        "notice": "Deposits ERC20 tokens into escrow."
      },
      "getActiveEscrows()": {
        "notice": "Retrieves the IDs of all active escrows."
      },
      "joinEscrow(uint256)": {
        "notice": "Allows the second user to deposit the same amount and token type as the initial escrow."
      },
      "recoverFunds(address)": {
        "notice": "Allows the owner to release any stuck or unclaimed funds to an address of their choosing."
      },
      "releaseFunds(uint256,address,string)": {
        "notice": "Releases the escrowed funds to the winner."
      },
      "updateMinEthRequired(uint256)": {
        "notice": "Updates the minimum ETH required for transactions."
      }
    },
    "version": 1
  },
  "storageLayout": {
    "storage": [
      {
        "astId": 2742,
        "contract": "contracts/Escrow.sol:Escrow",
        "label": "_owner",
        "offset": 0,
        "slot": "0",
        "type": "t_address"
      },
      {
        "astId": 8263,
        "contract": "contracts/Escrow.sol:Escrow",
        "label": "fee",
        "offset": 0,
        "slot": "1",
        "type": "t_uint256"
      },
      {
        "astId": 8265,
        "contract": "contracts/Escrow.sol:Escrow",
        "label": "escrowCounter",
        "offset": 0,
        "slot": "2",
        "type": "t_uint256"
      },
      {
        "astId": 8267,
        "contract": "contracts/Escrow.sol:Escrow",
        "label": "minEthRequired",
        "offset": 0,
        "slot": "3",
        "type": "t_uint256"
      },
      {
        "astId": 8291,
        "contract": "contracts/Escrow.sol:Escrow",
        "label": "escrows",
        "offset": 0,
        "slot": "4",
        "type": "t_mapping(t_uint256,t_struct(EscrowStruct)8286_storage)"
      },
      {
        "astId": 8296,
        "contract": "contracts/Escrow.sol:Escrow",
        "label": "userEscrows",
        "offset": 0,
        "slot": "5",
        "type": "t_mapping(t_address,t_array(t_uint256)dyn_storage)"
      },
      {
        "astId": 8299,
        "contract": "contracts/Escrow.sol:Escrow",
        "label": "escrowIds",
        "offset": 0,
        "slot": "6",
        "type": "t_array(t_uint256)dyn_storage"
      },
      {
        "astId": 8474,
        "contract": "contracts/Escrow.sol:Escrow",
        "label": "lz",
        "offset": 0,
        "slot": "7",
        "type": "t_contract(LZEscrow)9783"
      },
      {
        "astId": 8476,
        "contract": "contracts/Escrow.sol:Escrow",
        "label": "lzAddress",
        "offset": 0,
        "slot": "8",
        "type": "t_address"
      },
      {
        "astId": 8478,
        "contract": "contracts/Escrow.sol:Escrow",
        "label": "dstEid",
        "offset": 20,
        "slot": "8",
        "type": "t_uint32"
      }
    ],
    "types": {
      "t_address": {
        "encoding": "inplace",
        "label": "address",
        "numberOfBytes": "20"
      },
      "t_array(t_uint256)dyn_storage": {
        "base": "t_uint256",
        "encoding": "dynamic_array",
        "label": "uint256[]",
        "numberOfBytes": "32"
      },
      "t_bool": {
        "encoding": "inplace",
        "label": "bool",
        "numberOfBytes": "1"
      },
      "t_contract(LZEscrow)9783": {
        "encoding": "inplace",
        "label": "contract LZEscrow",
        "numberOfBytes": "20"
      },
      "t_enum(EscrowType)8270": {
        "encoding": "inplace",
        "label": "enum Escrow.EscrowType",
        "numberOfBytes": "1"
      },
      "t_mapping(t_address,t_array(t_uint256)dyn_storage)": {
        "encoding": "mapping",
        "key": "t_address",
        "label": "mapping(address => uint256[])",
        "numberOfBytes": "32",
        "value": "t_array(t_uint256)dyn_storage"
      },
      "t_mapping(t_uint256,t_struct(EscrowStruct)8286_storage)": {
        "encoding": "mapping",
        "key": "t_uint256",
        "label": "mapping(uint256 => struct Escrow.EscrowStruct)",
        "numberOfBytes": "32",
        "value": "t_struct(EscrowStruct)8286_storage"
      },
      "t_string_storage": {
        "encoding": "bytes",
        "label": "string",
        "numberOfBytes": "32"
      },
      "t_struct(EscrowStruct)8286_storage": {
        "encoding": "inplace",
        "label": "struct Escrow.EscrowStruct",
        "members": [
          {
            "astId": 8272,
            "contract": "contracts/Escrow.sol:Escrow",
            "label": "id",
            "offset": 0,
            "slot": "0",
            "type": "t_uint256"
          },
          {
            "astId": 8275,
            "contract": "contracts/Escrow.sol:Escrow",
            "label": "escrowType",
            "offset": 0,
            "slot": "1",
            "type": "t_enum(EscrowType)8270"
          },
          {
            "astId": 8277,
            "contract": "contracts/Escrow.sol:Escrow",
            "label": "depositor1",
            "offset": 1,
            "slot": "1",
            "type": "t_address"
          },
          {
            "astId": 8279,
            "contract": "contracts/Escrow.sol:Escrow",
            "label": "depositor2",
            "offset": 0,
            "slot": "2",
            "type": "t_address"
          },
          {
            "astId": 8281,
            "contract": "contracts/Escrow.sol:Escrow",
            "label": "amount",
            "offset": 0,
            "slot": "3",
            "type": "t_uint256"
          },
          {
            "astId": 8283,
            "contract": "contracts/Escrow.sol:Escrow",
            "label": "isReleased",
            "offset": 0,
            "slot": "4",
            "type": "t_bool"
          },
          {
            "astId": 8285,
            "contract": "contracts/Escrow.sol:Escrow",
            "label": "gameData",
            "offset": 0,
            "slot": "5",
            "type": "t_string_storage"
          }
        ],
        "numberOfBytes": "192"
      },
      "t_uint256": {
        "encoding": "inplace",
        "label": "uint256",
        "numberOfBytes": "32"
      },
      "t_uint32": {
        "encoding": "inplace",
        "label": "uint32",
        "numberOfBytes": "4"
      }
    }
  }
}