{
  "address": "0x9C32b71d0555522EC692D3f9ceF15B88f6400E95",
  "abi": [
    {
      "inputs": [
        {
          "internalType": "contract IERC20",
          "name": "_escrowToken",
          "type": "address"
        },
        {
          "internalType": "uint256",
          "name": "_fee",
          "type": "uint256"
        },
        {
          "internalType": "uint256",
          "name": "_minEthRequired",
          "type": "uint256"
        },
        {
          "internalType": "address",
          "name": "_owner",
          "type": "address"
        }
      ],
      "stateMutability": "nonpayable",
      "type": "constructor"
    },
    {
      "inputs": [
        {
          "internalType": "address",
          "name": "target",
          "type": "address"
        }
      ],
      "name": "AddressEmptyCode",
      "type": "error"
    },
    {
      "inputs": [
        {
          "internalType": "address",
          "name": "account",
          "type": "address"
        }
      ],
      "name": "AddressInsufficientBalance",
      "type": "error"
    },
    {
      "inputs": [],
      "name": "FailedInnerCall",
      "type": "error"
    },
    {
      "inputs": [
        {
          "internalType": "address",
          "name": "owner",
          "type": "address"
        }
      ],
      "name": "OwnableInvalidOwner",
      "type": "error"
    },
    {
      "inputs": [
        {
          "internalType": "address",
          "name": "account",
          "type": "address"
        }
      ],
      "name": "OwnableUnauthorizedAccount",
      "type": "error"
    },
    {
      "inputs": [
        {
          "internalType": "address",
          "name": "token",
          "type": "address"
        }
      ],
      "name": "SafeERC20FailedOperation",
      "type": "error"
    },
    {
      "anonymous": false,
      "inputs": [
        {
          "indexed": true,
          "internalType": "address",
          "name": "user",
          "type": "address"
        },
        {
          "indexed": false,
          "internalType": "uint256",
          "name": "amount",
          "type": "uint256"
        },
        {
          "indexed": false,
          "internalType": "enum Escrow.EscrowType",
          "name": "escrowType",
          "type": "uint8"
        },
        {
          "indexed": false,
          "internalType": "uint256",
          "name": "escrowId",
          "type": "uint256"
        }
      ],
      "name": "Deposited",
      "type": "event"
    },
    {
      "anonymous": false,
      "inputs": [
        {
          "indexed": false,
          "internalType": "uint256",
          "name": "oldMinEthRequired",
          "type": "uint256"
        },
        {
          "indexed": false,
          "internalType": "uint256",
          "name": "newMinEthRequired",
          "type": "uint256"
        }
      ],
      "name": "MinEthRequiredUpdated",
      "type": "event"
    },
    {
      "anonymous": false,
      "inputs": [
        {
          "indexed": true,
          "internalType": "address",
          "name": "previousOwner",
          "type": "address"
        },
        {
          "indexed": true,
          "internalType": "address",
          "name": "newOwner",
          "type": "address"
        }
      ],
      "name": "OwnershipTransferred",
      "type": "event"
    },
    {
      "anonymous": false,
      "inputs": [
        {
          "indexed": true,
          "internalType": "address",
          "name": "winner",
          "type": "address"
        },
        {
          "indexed": false,
          "internalType": "uint256",
          "name": "amount",
          "type": "uint256"
        },
        {
          "indexed": false,
          "internalType": "uint256",
          "name": "escrowId",
          "type": "uint256"
        }
      ],
      "name": "Released",
      "type": "event"
    },
    {
      "stateMutability": "payable",
      "type": "fallback"
    },
    {
      "inputs": [],
      "name": "depositEth",
      "outputs": [],
      "stateMutability": "payable",
      "type": "function"
    },
    {
      "inputs": [
        {
          "internalType": "uint256",
          "name": "amount",
          "type": "uint256"
        }
      ],
      "name": "depositToken",
      "outputs": [],
      "stateMutability": "payable",
      "type": "function"
    },
    {
      "inputs": [
        {
          "internalType": "uint256",
          "name": "",
          "type": "uint256"
        }
      ],
      "name": "escrowIds",
      "outputs": [
        {
          "internalType": "uint256",
          "name": "",
          "type": "uint256"
        }
      ],
      "stateMutability": "view",
      "type": "function"
    },
    {
      "inputs": [],
      "name": "escrowToken",
      "outputs": [
        {
          "internalType": "contract IERC20",
          "name": "",
          "type": "address"
        }
      ],
      "stateMutability": "view",
      "type": "function"
    },
    {
      "inputs": [
        {
          "internalType": "uint256",
          "name": "",
          "type": "uint256"
        }
      ],
      "name": "escrows",
      "outputs": [
        {
          "internalType": "uint256",
          "name": "id",
          "type": "uint256"
        },
        {
          "internalType": "enum Escrow.EscrowType",
          "name": "escrowType",
          "type": "uint8"
        },
        {
          "internalType": "address",
          "name": "depositor1",
          "type": "address"
        },
        {
          "internalType": "address",
          "name": "depositor2",
          "type": "address"
        },
        {
          "internalType": "uint256",
          "name": "amount",
          "type": "uint256"
        },
        {
          "internalType": "bool",
          "name": "isReleased",
          "type": "bool"
        },
        {
          "internalType": "string",
          "name": "gameData",
          "type": "string"
        }
      ],
      "stateMutability": "view",
      "type": "function"
    },
    {
      "inputs": [],
      "name": "fee",
      "outputs": [
        {
          "internalType": "uint256",
          "name": "",
          "type": "uint256"
        }
      ],
      "stateMutability": "view",
      "type": "function"
    },
    {
      "inputs": [],
      "name": "getAllEscrows",
      "outputs": [
        {
          "internalType": "uint256[]",
          "name": "",
          "type": "uint256[]"
        }
      ],
      "stateMutability": "view",
      "type": "function"
    },
    {
      "inputs": [
        {
          "internalType": "address",
          "name": "userAddress",
          "type": "address"
        }
      ],
      "name": "getAllUserEscrows",
      "outputs": [
        {
          "internalType": "uint256[]",
          "name": "",
          "type": "uint256[]"
        }
      ],
      "stateMutability": "view",
      "type": "function"
    },
    {
      "inputs": [
        {
          "internalType": "uint256",
          "name": "escrowId",
          "type": "uint256"
        }
      ],
      "name": "joinEscrow",
      "outputs": [],
      "stateMutability": "payable",
      "type": "function"
    },
    {
      "inputs": [],
      "name": "minEthRequired",
      "outputs": [
        {
          "internalType": "uint256",
          "name": "",
          "type": "uint256"
        }
      ],
      "stateMutability": "view",
      "type": "function"
    },
    {
      "inputs": [],
      "name": "owner",
      "outputs": [
        {
          "internalType": "address",
          "name": "",
          "type": "address"
        }
      ],
      "stateMutability": "view",
      "type": "function"
    },
    {
      "inputs": [
        {
          "internalType": "address payable",
          "name": "recipient",
          "type": "address"
        }
      ],
      "name": "recoverFunds",
      "outputs": [],
      "stateMutability": "nonpayable",
      "type": "function"
    },
    {
      "inputs": [
        {
          "internalType": "uint256",
          "name": "escrowId",
          "type": "uint256"
        },
        {
          "internalType": "address payable",
          "name": "winner",
          "type": "address"
        },
        {
          "internalType": "string",
          "name": "gameData",
          "type": "string"
        }
      ],
      "name": "releaseFunds",
      "outputs": [],
      "stateMutability": "nonpayable",
      "type": "function"
    },
    {
      "inputs": [],
      "name": "renounceOwnership",
      "outputs": [],
      "stateMutability": "nonpayable",
      "type": "function"
    },
    {
      "inputs": [
        {
          "internalType": "address",
          "name": "newOwner",
          "type": "address"
        }
      ],
      "name": "transferOwnership",
      "outputs": [],
      "stateMutability": "nonpayable",
      "type": "function"
    },
    {
      "inputs": [
        {
          "internalType": "uint256",
          "name": "_minEthRequired",
          "type": "uint256"
        }
      ],
      "name": "updateMinEthRequired",
      "outputs": [],
      "stateMutability": "nonpayable",
      "type": "function"
    },
    {
      "inputs": [
        {
          "internalType": "address",
          "name": "",
          "type": "address"
        },
        {
          "internalType": "uint256",
          "name": "",
          "type": "uint256"
        }
      ],
      "name": "userEscrows",
      "outputs": [
        {
          "internalType": "uint256",
          "name": "",
          "type": "uint256"
        }
      ],
      "stateMutability": "view",
      "type": "function"
    },
    {
      "stateMutability": "payable",
      "type": "receive"
    }
  ],
  "transactionHash": "0x8e438a84a3f4432d6ec133ea63bb2954304751006636d0eb6c90e28b7b11690c",
  "args": [
    "0x5FbDB2315678afecb367f032d93F642f64180aa3",
    1,
    100000000000000,
    "0x9f8b5BbBFc186466897fB34EdddE792bE3bb721F"
  ],
  "numDeployments": 1,
  "solcInputHash": "0d5255dc6f89343f235a134c39bf5251",
  "bytecode": "0x60a06040523480156200001157600080fd5b5060405162001f0a38038062001f0a833981016040819052620000349162000157565b806001600160a01b0381166200006557604051631e4fbdf760e01b8152600060048201526024015b60405180910390fd5b6200007081620000ee565b506064831115620000d35760405162461bcd60e51b815260206004820152602660248201527f466565206d757374206265206c657373207468616e206f7220657175616c20746044820152656f203130302560d01b60648201526084016200005c565b506001600160a01b03909216608052600155600355620001a8565b600080546001600160a01b038381166001600160a01b0319831681178455604051919092169283917f8be0079c531659141344cd1fd0a4f28419497f9722a3daafe3b4186f6b6457e09190a35050565b6001600160a01b03811681146200015457600080fd5b50565b600080600080608085870312156200016e57600080fd5b84516200017b816200013e565b80945050602085015192506040850151915060608501516200019d816200013e565b939692955090935050565b608051611d15620001f5600039600081816101eb015281816107570152818161082501528181610b1801528181610b4d01528181610faf0152818161135101526113d90152611d156000f3fe6080604052600436106101025760003560e01c8063715018a6116100955780638da5cb5b116100645780638da5cb5b146103065780639a6ac36f14610324578063ddca3f4314610339578063e72f6e301461034f578063f2fde38b1461036f57610139565b8063715018a614610284578063786f1295146102995780637f944dd0146102b95780638c438bf0146102d957610139565b80633dac1498116100d15780633dac14981461022557806343074c7f14610245578063439370b1146102695780636215be771461027157610139565b8063012f52ee1461016a57806308bbba1b146101a657806309393827146101c65780632fe319da146101d957610139565b36610139576101376040518060400160405280600e81526020016d1696969696903932b1b2b4bb329d60911b8152503461038f565b005b6101376040518060400160405280600f81526020016e1696969696903330b6363130b1b59d60891b8152503461038f565b34801561017657600080fd5b5061018a610185366004611726565b6103d8565b60405161019d97969594939291906117c7565b60405180910390f35b3480156101b257600080fd5b506101376101c1366004611837565b6104b5565b6101376101d4366004611726565b610899565b3480156101e557600080fd5b5061020d7f000000000000000000000000000000000000000000000000000000000000000081565b6040516001600160a01b03909116815260200161019d565b34801561023157600080fd5b50610137610240366004611726565b610bfa565b34801561025157600080fd5b5061025b60035481565b60405190815260200161019d565b610137610c47565b61013761027f366004611726565b610eb2565b34801561029057600080fd5b50610137611172565b3480156102a557600080fd5b5061025b6102b4366004611726565b611186565b3480156102c557600080fd5b5061025b6102d43660046118c0565b6111a7565b3480156102e557600080fd5b506102f96102f43660046118ec565b6111d8565b60405161019d9190611909565b34801561031257600080fd5b506000546001600160a01b031661020d565b34801561033057600080fd5b506102f9611244565b34801561034557600080fd5b5061025b60015481565b34801561035b57600080fd5b5061013761036a3660046118ec565b61129c565b34801561037b57600080fd5b5061013761038a3660046118ec565b611405565b6103d482826040516024016103a592919061194d565b60408051601f198184030181529190526020810180516001600160e01b0316632d839cb360e21b179052611443565b5050565b6004602081905260009182526040909120805460018201546002830154600384015494840154600585018054949660ff808616976101009096046001600160a01b039081169795169591949316929091906104329061196f565b80601f016020809104026020016040519081016040528092919081815260200182805461045e9061196f565b80156104ab5780601f10610480576101008083540402835291602001916104ab565b820191906000526020600020905b81548152906001019060200180831161048e57829003601f168201915b5050505050905087565b6104bd61144c565b60008481526004602081905260409091209081015460ff16156105205760405162461bcd60e51b8152602060048201526016602482015275119d5b991cc8185b1c9958591e481c995b19585cd95960521b60448201526064015b60405180910390fd5b600081600301541161056a5760405162461bcd60e51b81526020600482015260136024820152724e6f2066756e647320746f2072656c6561736560681b6044820152606401610517565b60028101546001600160a01b03166105c45760405162461bcd60e51b815260206004820152601760248201527f457363726f77206e6f742066756c6c792066756e6465640000000000000000006044820152606401610517565b60006064600154836003015460026105dc91906119bf565b6105e691906119bf565b6105f091906119d6565b90506000818360030154600261060691906119bf565b61061091906119f8565b60048401805460ff19166001179055905060058301610630858783611a6f565b50600060018085015460ff169081111561064c5761064c61173f565b0361074057804710156106a15760405162461bcd60e51b815260206004820152601860248201527f496e73756666696369656e74204554482062616c616e636500000000000000006044820152606401610517565b6000866001600160a01b03168260405160006040518083038185875af1925050503d80600081146106ee576040519150601f19603f3d011682016040523d82523d6000602084013e6106f3565b606091505b505090508061073a5760405162461bcd60e51b8152602060048201526013602482015272115512081d1c985b9cd9995c8819985a5b1959606a1b6044820152606401610517565b5061084c565b6040516370a0823160e01b815230600482015281907f00000000000000000000000000000000000000000000000000000000000000006001600160a01b0316906370a0823190602401602060405180830381865afa1580156107a6573d6000803e3d6000fd5b505050506040513d601f19601f820116820180604052508101906107ca9190611b30565b10156108185760405162461bcd60e51b815260206004820181905260248201527f496e73756666696369656e7420455243323020746f6b656e2062616c616e63656044820152606401610517565b61084c6001600160a01b037f0000000000000000000000000000000000000000000000000000000000000000168783611479565b60408051828152602081018990526001600160a01b038816917f82e416ba72d10e709b5de7ac16f5f49ff1d94f22d55bf582d353d3c313a1e8dd910160405180910390a250505050505050565b6000818152600460205260409020600181015461010090046001600160a01b03166108fa5760405162461bcd60e51b8152602060048201526011602482015270125b9d985b1a5908195cd8dc9bddc81251607a1b6044820152606401610517565b60028101546001600160a01b0316156109555760405162461bcd60e51b815260206004820152601b60248201527f457363726f7753747275637420616c7265616479206a6f696e656400000000006044820152606401610517565b6001810154336101009091046001600160a01b0316036109b75760405162461bcd60e51b815260206004820152601b60248201527f43616e6e6f74206a6f696e20796f7572206f776e20657363726f7700000000006044820152606401610517565b6000808060018085015460ff16908111156109d4576109d461173f565b03610aa45782600301543414610a2c5760405162461bcd60e51b815260206004820152601b60248201527f496e636f727265637420457468657220616d6f756e742073656e7400000000006044820152606401610517565b606460015434610a3c91906119bf565b610a4691906119d6565b9150610a5282346119f8565b9050610a666000546001600160a01b031690565b6001600160a01b03166108fc839081150290604051600060405180830381858888f19350505050158015610a9e573d6000803e3d6000fd5b50610b75565b600354341015610ac65760405162461bcd60e51b815260040161051790611b49565b60646001548460030154610ada91906119bf565b610ae491906119d6565b9150818360030154610af691906119f8565b9050610b4033610b0e6000546001600160a01b031690565b6001600160a01b037f0000000000000000000000000000000000000000000000000000000000000000169190856114d8565b610b756001600160a01b037f0000000000000000000000000000000000000000000000000000000000000000163330846114d8565b6002830180546001600160a01b031916339081179091556000818152600560209081526040808320805460018181018355918552929093209091018790559085015490517f658ea7d02788018eff5425fa04c446062f80a2026f9899163e3a221cc30d093691610bec91859160ff16908990611ba6565b60405180910390a250505050565b610c0261144c565b600380549082905560408051828152602081018490527f97e4b33265058511cea22667f6694ade58e24a9e7dbcd3e0d815670aed62d136910160405180910390a15050565b60003411610c975760405162461bcd60e51b815260206004820152601c60248201527f4d757374206465706f736974206d6f7265207468616e203020455448000000006044820152606401610517565b6000606460015434610ca991906119bf565b610cb391906119d6565b90506000610cc182346119f8565b9050610cd56000546001600160a01b031690565b6001600160a01b03166108fc839081150290604051600060405180830381858888f19350505050158015610d0d573d6000803e3d6000fd5b506002805460009182610d1f83611bc8565b909155506040805160e0810182528281526000602080830182815233848601526060840183905234608085015260a084018390528451808301865283815260c0850152858352600490915292902081518155915160018084018054959650929491929160ff1916908381811115610d9857610d9861173f565b02179055506040820151600182018054610100600160a81b0319166101006001600160a01b039384160217905560608301516002830180546001600160a01b031916919092161790556080820151600382015560a082015160048201805460ff191691151591909117905560c08201516005820190610e179082611be1565b505033600081815260056020908152604080832080546001818101835591855292842090920186905560068054928301815583527ff652222313e28459528d920b65115c16c04f3efc82aaedc97be59f3f377c0d3f909101859055519192507f658ea7d02788018eff5425fa04c446062f80a2026f9899163e3a221cc30d093691610ea59186918690611ba6565b60405180910390a2505050565b60008111610f025760405162461bcd60e51b815260206004820152601f60248201527f4d757374206465706f736974206d6f7265207468616e203020746f6b656e73006044820152606401610517565b600354341015610f245760405162461bcd60e51b815260040161051790611b49565b600080546003546040516001600160a01b039092169281156108fc029290818181858888f19350505050158015610f5f573d6000803e3d6000fd5b506000606460015483610f7291906119bf565b610f7c91906119d6565b90506000610f8a82846119f8565b9050610fa233610b0e6000546001600160a01b031690565b610fd76001600160a01b037f0000000000000000000000000000000000000000000000000000000000000000163330846114d8565b6002805460009182610fe883611bc8565b909155506040805160e0810182528281526001602080830182815233848601526000606085018190526080850189905260a085018190528551808401875281815260c086015286815260049092529390208251815592518382018054959650929490929160ff199091169083818111156110645761106461173f565b02179055506040820151600182018054610100600160a81b0319166101006001600160a01b039384160217905560608301516002830180546001600160a01b031916919092161790556080820151600382015560a082015160048201805460ff191691151591909117905560c082015160058201906110e39082611be1565b505033600081815260056020908152604080832080546001818101835591855292842090920186905560068054808401825593527ff652222313e28459528d920b65115c16c04f3efc82aaedc97be59f3f377c0d3f90920185905590519192507f658ea7d02788018eff5425fa04c446062f80a2026f9899163e3a221cc30d093691610bec9186918690611ba6565b61117a61144c565b6111846000611517565b565b6006818154811061119657600080fd5b600091825260209091200154905081565b600560205281600052604060002081815481106111c357600080fd5b90600052602060002001600091509150505481565b6001600160a01b03811660009081526005602090815260409182902080548351818402810184019094528084526060939283018282801561123857602002820191906000526020600020905b815481526020019060010190808311611224575b50505050509050919050565b6060600680548060200260200160405190810160405280929190818152602001828054801561129257602002820191906000526020600020905b81548152602001906001019080831161127e575b5050505050905090565b6112a461144c565b6001600160a01b0381166112fa5760405162461bcd60e51b815260206004820152601960248201527f496e76616c696420726563697069656e742061646472657373000000000000006044820152606401610517565b478015611339576040516001600160a01b0383169082156108fc029083906000818181858888f19350505050158015611337573d6000803e3d6000fd5b505b6040516370a0823160e01b81523060048201526000907f00000000000000000000000000000000000000000000000000000000000000006001600160a01b0316906370a0823190602401602060405180830381865afa1580156113a0573d6000803e3d6000fd5b505050506040513d601f19601f820116820180604052508101906113c49190611b30565b90508015611400576114006001600160a01b037f0000000000000000000000000000000000000000000000000000000000000000168483611479565b505050565b61140d61144c565b6001600160a01b03811661143757604051631e4fbdf760e01b815260006004820152602401610517565b61144081611517565b50565b61144081611567565b6000546001600160a01b031633146111845760405163118cdaa760e01b8152336004820152602401610517565b6040516001600160a01b0383811660248301526044820183905261140091859182169063a9059cbb906064015b604051602081830303815290604052915060e01b6020820180516001600160e01b038381831617835250505050611588565b6040516001600160a01b0384811660248301528381166044830152606482018390526115119186918216906323b872dd906084016114a6565b50505050565b600080546001600160a01b038381166001600160a01b0319831681178455604051919092169283917f8be0079c531659141344cd1fd0a4f28419497f9722a3daafe3b4186f6b6457e09190a35050565b60006a636f6e736f6c652e6c6f679050600080835160208501845afa505050565b600061159d6001600160a01b038416836115eb565b905080516000141580156115c25750808060200190518101906115c09190611ca1565b155b1561140057604051635274afe760e01b81526001600160a01b0384166004820152602401610517565b60606115f983836000611602565b90505b92915050565b6060814710156116275760405163cd78605960e01b8152306004820152602401610517565b600080856001600160a01b031684866040516116439190611cc3565b60006040518083038185875af1925050503d8060008114611680576040519150601f19603f3d011682016040523d82523d6000602084013e611685565b606091505b50915091506116958683836116a1565b925050505b9392505050565b6060826116b6576116b1826116fd565b61169a565b81511580156116cd57506001600160a01b0384163b155b156116f657604051639996b31560e01b81526001600160a01b0385166004820152602401610517565b508061169a565b80511561170d5780518082602001fd5b604051630a12f52160e11b815260040160405180910390fd5b60006020828403121561173857600080fd5b5035919050565b634e487b7160e01b600052602160045260246000fd5b6002811061177357634e487b7160e01b600052602160045260246000fd5b9052565b60005b8381101561179257818101518382015260200161177a565b50506000910152565b600081518084526117b3816020860160208601611777565b601f01601f19169290920160200192915050565b8781526117d76020820188611755565b6001600160a01b038681166040830152851660608201526080810184905282151560a082015260e060c082018190526000906118159083018461179b565b9998505050505050505050565b6001600160a01b038116811461144057600080fd5b6000806000806060858703121561184d57600080fd5b84359350602085013561185f81611822565b9250604085013567ffffffffffffffff8082111561187c57600080fd5b818701915087601f83011261189057600080fd5b81358181111561189f57600080fd5b8860208285010111156118b157600080fd5b95989497505060200194505050565b600080604083850312156118d357600080fd5b82356118de81611822565b946020939093013593505050565b6000602082840312156118fe57600080fd5b813561169a81611822565b6020808252825182820181905260009190848201906040850190845b8181101561194157835183529284019291840191600101611925565b50909695505050505050565b604081526000611960604083018561179b565b90508260208301529392505050565b600181811c9082168061198357607f821691505b6020821081036119a357634e487b7160e01b600052602260045260246000fd5b50919050565b634e487b7160e01b600052601160045260246000fd5b80820281158282048414176115fc576115fc6119a9565b6000826119f357634e487b7160e01b600052601260045260246000fd5b500490565b818103818111156115fc576115fc6119a9565b634e487b7160e01b600052604160045260246000fd5b601f82111561140057600081815260208120601f850160051c81016020861015611a485750805b601f850160051c820191505b81811015611a6757828155600101611a54565b505050505050565b67ffffffffffffffff831115611a8757611a87611a0b565b611a9b83611a95835461196f565b83611a21565b6000601f841160018114611acf5760008515611ab75750838201355b600019600387901b1c1916600186901b178355611b29565b600083815260209020601f19861690835b82811015611b005786850135825560209485019460019092019101611ae0565b5086821015611b1d5760001960f88860031b161c19848701351681555b505060018560011b0183555b5050505050565b600060208284031215611b4257600080fd5b5051919050565b60208082526038908201527f4d7573742073656e64206174206c6561737420746865206d696e696d756d204560408201527f544820726571756972656420666f722067617320666565730000000000000000606082015260800190565b83815260608101611bba6020830185611755565b826040830152949350505050565b600060018201611bda57611bda6119a9565b5060010190565b815167ffffffffffffffff811115611bfb57611bfb611a0b565b611c0f81611c09845461196f565b84611a21565b602080601f831160018114611c445760008415611c2c5750858301515b600019600386901b1c1916600185901b178555611a67565b600085815260208120601f198616915b82811015611c7357888601518255948401946001909101908401611c54565b5085821015611c915787850151600019600388901b60f8161c191681555b5050505050600190811b01905550565b600060208284031215611cb357600080fd5b8151801515811461169a57600080fd5b60008251611cd5818460208701611777565b919091019291505056fea2646970667358221220a878eb0221c64435e3163c5bbce9a8d7df211c7a93fcf05c7f8837cd3311260264736f6c63430008140033",
  "devdoc": {
    "details": "This contract allows two users to deposit tokens into escrow, play a game off-chain, and have the winner receive the funds minus a fee.",
    "errors": {
      "AddressEmptyCode(address)": [
        {
          "details": "There's no code at `target` (it is not a contract)."
        }
      ],
      "AddressInsufficientBalance(address)": [
        {
          "details": "The ETH balance of the account is not enough to perform the operation."
        }
      ],
      "FailedInnerCall()": [
        {
          "details": "A call to an address target failed. The target may have reverted."
        }
      ],
      "OwnableInvalidOwner(address)": [
        {
          "details": "The owner is not a valid owner account. (eg. `address(0)`)"
        }
      ],
      "OwnableUnauthorizedAccount(address)": [
        {
          "details": "The caller account is not authorized to perform an operation."
        }
      ],
      "SafeERC20FailedOperation(address)": [
        {
          "details": "An operation with an ERC20 token failed."
        }
      ]
    },
    "events": {
      "Deposited(address,uint256,uint8,uint256)": {
        "details": "Emitted when a deposit is made.",
        "params": {
          "amount": "The amount of the deposit.",
          "escrowId": "The ID of the escrow.",
          "escrowType": "The type of the deposit (ETH or ERC20).",
          "user": "The address of the user making the deposit."
        }
      },
      "MinEthRequiredUpdated(uint256,uint256)": {
        "details": "Emitted when the minimum ETH required is updated.",
        "params": {
          "newMinEthRequired": "The new minimum ETH required.",
          "oldMinEthRequired": "The old minimum ETH required."
        }
      },
      "Released(address,uint256,uint256)": {
        "details": "Emitted when funds are released to the winner.",
        "params": {
          "amount": "The amount released to the winner.",
          "escrowId": "The ID of the escrow.",
          "winner": "The address of the winner."
        }
      }
    },
    "kind": "dev",
    "methods": {
      "constructor": {
        "details": "Constructor that initializes the contract with a specific ERC20 token, fee, and initial owner.",
        "params": {
          "_escrowToken": "The address of the ERC20 token to be used in the escrow.",
          "_fee": "The fee percentage (e.g., 1 for 1%).",
          "_minEthRequired": "The minimum amount of ETH required for gas.",
          "_owner": "The address of the initial owner of the contract."
        }
      },
      "depositEth()": {
        "details": "User can deposit ETH, which will be tracked in the contract."
      },
      "depositToken(uint256)": {
        "details": "User can deposit ERC20 tokens, which will be tracked in the contract.",
        "params": {
          "amount": "The amount of tokens to deposit."
        }
      },
      "joinEscrow(uint256)": {
        "params": {
          "escrowId": "The ID of the escrow to join."
        }
      },
      "owner()": {
        "details": "Returns the address of the current owner."
      },
      "recoverFunds(address)": {
        "params": {
          "recipient": "The address to send the recovered funds to."
        }
      },
      "releaseFunds(uint256,address,string)": {
        "details": "This function can only be called by the owner.",
        "params": {
          "escrowId": "The ID of the escrow to release.",
          "gameData": "The data from the game that was played.",
          "winner": "The address of the winner."
        }
      },
      "renounceOwnership()": {
        "details": "Leaves the contract without owner. It will not be possible to call `onlyOwner` functions. Can only be called by the current owner. NOTE: Renouncing ownership will leave the contract without an owner, thereby disabling any functionality that is only available to the owner."
      },
      "transferOwnership(address)": {
        "details": "Transfers ownership of the contract to a new account (`newOwner`). Can only be called by the current owner."
      },
      "updateMinEthRequired(uint256)": {
        "params": {
          "_minEthRequired": "The new minimum ETH required."
        }
      }
    },
    "title": "GameEscrow",
    "version": 1
  },
  "userdoc": {
    "kind": "user",
    "methods": {
      "depositEth()": {
        "notice": "Deposits native Ether into escrow."
      },
      "depositToken(uint256)": {
        "notice": "Deposits ERC20 tokens into escrow."
      },
      "joinEscrow(uint256)": {
        "notice": "Allows the second user to deposit the same amount and token type as the initial escrow."
      },
      "recoverFunds(address)": {
        "notice": "Allows the owner to release any stuck or unclaimed funds to an address of their choosing."
      },
      "releaseFunds(uint256,address,string)": {
        "notice": "Releases the escrowed funds to the winner."
      },
      "updateMinEthRequired(uint256)": {
        "notice": "Updates the minimum ETH required for transactions."
      }
    },
    "version": 1
  },
  "storageLayout": {
    "storage": [
      {
        "astId": 8,
        "contract": "contracts/Escrow.sol:Escrow",
        "label": "_owner",
        "offset": 0,
        "slot": "0",
        "type": "t_address"
      },
      {
        "astId": 1533,
        "contract": "contracts/Escrow.sol:Escrow",
        "label": "fee",
        "offset": 0,
        "slot": "1",
        "type": "t_uint256"
      },
      {
        "astId": 1535,
        "contract": "contracts/Escrow.sol:Escrow",
        "label": "escrowCounter",
        "offset": 0,
        "slot": "2",
        "type": "t_uint256"
      },
      {
        "astId": 1537,
        "contract": "contracts/Escrow.sol:Escrow",
        "label": "minEthRequired",
        "offset": 0,
        "slot": "3",
        "type": "t_uint256"
      },
      {
        "astId": 1561,
        "contract": "contracts/Escrow.sol:Escrow",
        "label": "escrows",
        "offset": 0,
        "slot": "4",
        "type": "t_mapping(t_uint256,t_struct(EscrowStruct)1556_storage)"
      },
      {
        "astId": 1566,
        "contract": "contracts/Escrow.sol:Escrow",
        "label": "userEscrows",
        "offset": 0,
        "slot": "5",
        "type": "t_mapping(t_address,t_array(t_uint256)dyn_storage)"
      },
      {
        "astId": 1569,
        "contract": "contracts/Escrow.sol:Escrow",
        "label": "escrowIds",
        "offset": 0,
        "slot": "6",
        "type": "t_array(t_uint256)dyn_storage"
      }
    ],
    "types": {
      "t_address": {
        "encoding": "inplace",
        "label": "address",
        "numberOfBytes": "20"
      },
      "t_array(t_uint256)dyn_storage": {
        "base": "t_uint256",
        "encoding": "dynamic_array",
        "label": "uint256[]",
        "numberOfBytes": "32"
      },
      "t_bool": {
        "encoding": "inplace",
        "label": "bool",
        "numberOfBytes": "1"
      },
      "t_enum(EscrowType)1540": {
        "encoding": "inplace",
        "label": "enum Escrow.EscrowType",
        "numberOfBytes": "1"
      },
      "t_mapping(t_address,t_array(t_uint256)dyn_storage)": {
        "encoding": "mapping",
        "key": "t_address",
        "label": "mapping(address => uint256[])",
        "numberOfBytes": "32",
        "value": "t_array(t_uint256)dyn_storage"
      },
      "t_mapping(t_uint256,t_struct(EscrowStruct)1556_storage)": {
        "encoding": "mapping",
        "key": "t_uint256",
        "label": "mapping(uint256 => struct Escrow.EscrowStruct)",
        "numberOfBytes": "32",
        "value": "t_struct(EscrowStruct)1556_storage"
      },
      "t_string_storage": {
        "encoding": "bytes",
        "label": "string",
        "numberOfBytes": "32"
      },
      "t_struct(EscrowStruct)1556_storage": {
        "encoding": "inplace",
        "label": "struct Escrow.EscrowStruct",
        "members": [
          {
            "astId": 1542,
            "contract": "contracts/Escrow.sol:Escrow",
            "label": "id",
            "offset": 0,
            "slot": "0",
            "type": "t_uint256"
          },
          {
            "astId": 1545,
            "contract": "contracts/Escrow.sol:Escrow",
            "label": "escrowType",
            "offset": 0,
            "slot": "1",
            "type": "t_enum(EscrowType)1540"
          },
          {
            "astId": 1547,
            "contract": "contracts/Escrow.sol:Escrow",
            "label": "depositor1",
            "offset": 1,
            "slot": "1",
            "type": "t_address"
          },
          {
            "astId": 1549,
            "contract": "contracts/Escrow.sol:Escrow",
            "label": "depositor2",
            "offset": 0,
            "slot": "2",
            "type": "t_address"
          },
          {
            "astId": 1551,
            "contract": "contracts/Escrow.sol:Escrow",
            "label": "amount",
            "offset": 0,
            "slot": "3",
            "type": "t_uint256"
          },
          {
            "astId": 1553,
            "contract": "contracts/Escrow.sol:Escrow",
            "label": "isReleased",
            "offset": 0,
            "slot": "4",
            "type": "t_bool"
          },
          {
            "astId": 1555,
            "contract": "contracts/Escrow.sol:Escrow",
            "label": "gameData",
            "offset": 0,
            "slot": "5",
            "type": "t_string_storage"
          }
        ],
        "numberOfBytes": "192"
      },
      "t_uint256": {
        "encoding": "inplace",
        "label": "uint256",
        "numberOfBytes": "32"
      }
    }
  }
}