{
  "address": "0x83c9Bbf580E9607C1a828425dAfe4590B8F3d32E",
  "abi": [
    {
      "inputs": [
        {
          "internalType": "address",
          "name": "_endpoint",
          "type": "address"
        },
        {
          "internalType": "address",
          "name": "_owner",
          "type": "address"
        }
      ],
      "stateMutability": "nonpayable",
      "type": "constructor"
    },
    {
      "inputs": [
        {
          "internalType": "address",
          "name": "target",
          "type": "address"
        }
      ],
      "name": "AddressEmptyCode",
      "type": "error"
    },
    {
      "inputs": [
        {
          "internalType": "address",
          "name": "account",
          "type": "address"
        }
      ],
      "name": "AddressInsufficientBalance",
      "type": "error"
    },
    {
      "inputs": [],
      "name": "FailedInnerCall",
      "type": "error"
    },
    {
      "inputs": [],
      "name": "InvalidDelegate",
      "type": "error"
    },
    {
      "inputs": [],
      "name": "InvalidEndpointCall",
      "type": "error"
    },
    {
      "inputs": [
        {
          "internalType": "uint16",
          "name": "optionType",
          "type": "uint16"
        }
      ],
      "name": "InvalidOptionType",
      "type": "error"
    },
    {
      "inputs": [],
      "name": "LzTokenUnavailable",
      "type": "error"
    },
    {
      "inputs": [
        {
          "internalType": "uint32",
          "name": "eid",
          "type": "uint32"
        }
      ],
      "name": "NoPeer",
      "type": "error"
    },
    {
      "inputs": [
        {
          "internalType": "uint256",
          "name": "msgValue",
          "type": "uint256"
        }
      ],
      "name": "NotEnoughNative",
      "type": "error"
    },
    {
      "inputs": [
        {
          "internalType": "address",
          "name": "addr",
          "type": "address"
        }
      ],
      "name": "OnlyEndpoint",
      "type": "error"
    },
    {
      "inputs": [
        {
          "internalType": "uint32",
          "name": "eid",
          "type": "uint32"
        },
        {
          "internalType": "bytes32",
          "name": "sender",
          "type": "bytes32"
        }
      ],
      "name": "OnlyPeer",
      "type": "error"
    },
    {
      "inputs": [
        {
          "internalType": "address",
          "name": "owner",
          "type": "address"
        }
      ],
      "name": "OwnableInvalidOwner",
      "type": "error"
    },
    {
      "inputs": [
        {
          "internalType": "address",
          "name": "account",
          "type": "address"
        }
      ],
      "name": "OwnableUnauthorizedAccount",
      "type": "error"
    },
    {
      "inputs": [
        {
          "internalType": "uint8",
          "name": "bits",
          "type": "uint8"
        },
        {
          "internalType": "uint256",
          "name": "value",
          "type": "uint256"
        }
      ],
      "name": "SafeCastOverflowedUintDowncast",
      "type": "error"
    },
    {
      "inputs": [
        {
          "internalType": "address",
          "name": "token",
          "type": "address"
        }
      ],
      "name": "SafeERC20FailedOperation",
      "type": "error"
    },
    {
      "anonymous": false,
      "inputs": [
        {
          "indexed": true,
          "internalType": "address",
          "name": "previousOwner",
          "type": "address"
        },
        {
          "indexed": true,
          "internalType": "address",
          "name": "newOwner",
          "type": "address"
        }
      ],
      "name": "OwnershipTransferred",
      "type": "event"
    },
    {
      "anonymous": false,
      "inputs": [
        {
          "indexed": false,
          "internalType": "uint32",
          "name": "eid",
          "type": "uint32"
        },
        {
          "indexed": false,
          "internalType": "bytes32",
          "name": "peer",
          "type": "bytes32"
        }
      ],
      "name": "PeerSet",
      "type": "event"
    },
    {
      "inputs": [
        {
          "components": [
            {
              "internalType": "uint32",
              "name": "srcEid",
              "type": "uint32"
            },
            {
              "internalType": "bytes32",
              "name": "sender",
              "type": "bytes32"
            },
            {
              "internalType": "uint64",
              "name": "nonce",
              "type": "uint64"
            }
          ],
          "internalType": "struct Origin",
          "name": "origin",
          "type": "tuple"
        }
      ],
      "name": "allowInitializePath",
      "outputs": [
        {
          "internalType": "bool",
          "name": "",
          "type": "bool"
        }
      ],
      "stateMutability": "view",
      "type": "function"
    },
    {
      "inputs": [
        {
          "internalType": "uint128",
          "name": "_gas",
          "type": "uint128"
        },
        {
          "internalType": "uint128",
          "name": "_value",
          "type": "uint128"
        }
      ],
      "name": "createLzReceiveOption",
      "outputs": [
        {
          "internalType": "bytes",
          "name": "",
          "type": "bytes"
        }
      ],
      "stateMutability": "pure",
      "type": "function"
    },
    {
      "inputs": [],
      "name": "endpoint",
      "outputs": [
        {
          "internalType": "contract ILayerZeroEndpointV2",
          "name": "",
          "type": "address"
        }
      ],
      "stateMutability": "view",
      "type": "function"
    },
    {
      "inputs": [],
      "name": "fees",
      "outputs": [
        {
          "internalType": "uint128",
          "name": "gasLimit",
          "type": "uint128"
        },
        {
          "internalType": "uint128",
          "name": "gas",
          "type": "uint128"
        }
      ],
      "stateMutability": "view",
      "type": "function"
    },
    {
      "inputs": [
        {
          "components": [
            {
              "internalType": "uint32",
              "name": "srcEid",
              "type": "uint32"
            },
            {
              "internalType": "bytes32",
              "name": "sender",
              "type": "bytes32"
            },
            {
              "internalType": "uint64",
              "name": "nonce",
              "type": "uint64"
            }
          ],
          "internalType": "struct Origin",
          "name": "",
          "type": "tuple"
        },
        {
          "internalType": "bytes",
          "name": "",
          "type": "bytes"
        },
        {
          "internalType": "address",
          "name": "_sender",
          "type": "address"
        }
      ],
      "name": "isComposeMsgSender",
      "outputs": [
        {
          "internalType": "bool",
          "name": "",
          "type": "bool"
        }
      ],
      "stateMutability": "view",
      "type": "function"
    },
    {
      "inputs": [
        {
          "components": [
            {
              "internalType": "uint32",
              "name": "srcEid",
              "type": "uint32"
            },
            {
              "internalType": "bytes32",
              "name": "sender",
              "type": "bytes32"
            },
            {
              "internalType": "uint64",
              "name": "nonce",
              "type": "uint64"
            }
          ],
          "internalType": "struct Origin",
          "name": "_origin",
          "type": "tuple"
        },
        {
          "internalType": "bytes32",
          "name": "_guid",
          "type": "bytes32"
        },
        {
          "internalType": "bytes",
          "name": "_message",
          "type": "bytes"
        },
        {
          "internalType": "address",
          "name": "_executor",
          "type": "address"
        },
        {
          "internalType": "bytes",
          "name": "_extraData",
          "type": "bytes"
        }
      ],
      "name": "lzReceive",
      "outputs": [],
      "stateMutability": "payable",
      "type": "function"
    },
    {
      "inputs": [
        {
          "internalType": "uint32",
          "name": "",
          "type": "uint32"
        },
        {
          "internalType": "bytes32",
          "name": "",
          "type": "bytes32"
        }
      ],
      "name": "nextNonce",
      "outputs": [
        {
          "internalType": "uint64",
          "name": "nonce",
          "type": "uint64"
        }
      ],
      "stateMutability": "view",
      "type": "function"
    },
    {
      "inputs": [],
      "name": "oAppVersion",
      "outputs": [
        {
          "internalType": "uint64",
          "name": "senderVersion",
          "type": "uint64"
        },
        {
          "internalType": "uint64",
          "name": "receiverVersion",
          "type": "uint64"
        }
      ],
      "stateMutability": "pure",
      "type": "function"
    },
    {
      "inputs": [],
      "name": "owner",
      "outputs": [
        {
          "internalType": "address",
          "name": "",
          "type": "address"
        }
      ],
      "stateMutability": "view",
      "type": "function"
    },
    {
      "inputs": [
        {
          "internalType": "uint32",
          "name": "eid",
          "type": "uint32"
        }
      ],
      "name": "peers",
      "outputs": [
        {
          "internalType": "bytes32",
          "name": "peer",
          "type": "bytes32"
        }
      ],
      "stateMutability": "view",
      "type": "function"
    },
    {
      "inputs": [
        {
          "internalType": "uint32",
          "name": "_dstEid",
          "type": "uint32"
        },
        {
          "internalType": "bytes",
          "name": "payload",
          "type": "bytes"
        },
        {
          "internalType": "bytes",
          "name": "_options",
          "type": "bytes"
        },
        {
          "internalType": "bool",
          "name": "_payInLzToken",
          "type": "bool"
        }
      ],
      "name": "quote",
      "outputs": [
        {
          "internalType": "uint256",
          "name": "nativeFee",
          "type": "uint256"
        }
      ],
      "stateMutability": "view",
      "type": "function"
    },
    {
      "inputs": [],
      "name": "renounceOwnership",
      "outputs": [],
      "stateMutability": "nonpayable",
      "type": "function"
    },
    {
      "inputs": [
        {
          "internalType": "uint32",
          "name": "_dstEid",
          "type": "uint32"
        },
        {
          "internalType": "bytes",
          "name": "_payload",
          "type": "bytes"
        }
      ],
      "name": "send",
      "outputs": [],
      "stateMutability": "payable",
      "type": "function"
    },
    {
      "inputs": [
        {
          "internalType": "address",
          "name": "_delegate",
          "type": "address"
        }
      ],
      "name": "setDelegate",
      "outputs": [],
      "stateMutability": "nonpayable",
      "type": "function"
    },
    {
      "inputs": [
        {
          "internalType": "address payable",
          "name": "_escrow",
          "type": "address"
        }
      ],
      "name": "setEscrow",
      "outputs": [],
      "stateMutability": "nonpayable",
      "type": "function"
    },
    {
      "inputs": [
        {
          "internalType": "uint128",
          "name": "_gasLimit",
          "type": "uint128"
        },
        {
          "internalType": "uint128",
          "name": "_gas",
          "type": "uint128"
        }
      ],
      "name": "setFees",
      "outputs": [],
      "stateMutability": "nonpayable",
      "type": "function"
    },
    {
      "inputs": [
        {
          "internalType": "uint32",
          "name": "_eid",
          "type": "uint32"
        },
        {
          "internalType": "bytes32",
          "name": "_peer",
          "type": "bytes32"
        }
      ],
      "name": "setPeer",
      "outputs": [],
      "stateMutability": "nonpayable",
      "type": "function"
    },
    {
      "inputs": [
        {
          "internalType": "address",
          "name": "newOwner",
          "type": "address"
        }
      ],
      "name": "transferOwnership",
      "outputs": [],
      "stateMutability": "nonpayable",
      "type": "function"
    }
  ],
  "transactionHash": "0x8e65ebbe77550d9eb0966901ab9192091968920455e216e86eb8919e2e1c8590",
  "args": [
    "0x6EDCE65403992e310A62460808c4b910D972f10f",
    "0x2B402F4aec180Fb4188Df7a703d3861f0137855B"
  ],
  "numDeployments": 1,
  "solcInputHash": "6580cc2eaed9df358031f0964f8b4aed",
  "bytecode": "0x60e06040526207a12060a05261c35060c05271c3500000000000000000000000000007a1206004553480156200003457600080fd5b506040516200185f3803806200185f83398101604081905262000057916200019f565b81818181806001600160a01b0381166200008b57604051631e4fbdf760e01b81526000600482015260240160405180910390fd5b620000968162000132565b506001600160a01b038083166080528116620000c557604051632d618d8160e21b815260040160405180910390fd5b60805160405163ca5eb5e160e01b81526001600160a01b0383811660048301529091169063ca5eb5e190602401600060405180830381600087803b1580156200010d57600080fd5b505af115801562000122573d6000803e3d6000fd5b50505050505050505050620001d7565b600080546001600160a01b038381166001600160a01b0319831681178455604051919092169283917f8be0079c531659141344cd1fd0a4f28419497f9722a3daafe3b4186f6b6457e09190a35050565b80516001600160a01b03811681146200019a57600080fd5b919050565b60008060408385031215620001b357600080fd5b620001be8362000182565b9150620001ce6020840162000182565b90509250929050565b6080516116426200021d600039600081816101af015281816104490152818161060a0152818161072a015281816109fb01528181610af20152610bab01526116426000f3fe6080604052600436106101095760003560e01c80638da5cb5b11610095578063c72242b211610064578063c72242b21461033a578063ca5eb5e114610367578063eba0070714610387578063f2fde38b146103a7578063ff7bd03d146103c757600080fd5b80638da5cb5b146102765780639af1d35a14610294578063bb0b6a53146102df578063c10c35461461031a57600080fd5b80633400288b116100dc5780633400288b1461017d5780635e280f111461019d578063715018a6146101e95780637d25a05e146101fe57806382413eac1461023757600080fd5b80630aad0ecc1461010e57806313137d651461012357806317442b701461013657806332760c7a1461015d575b600080fd5b61012161011c366004610fff565b6103e7565b005b6101216101313660046110c3565b610447565b34801561014257600080fd5b50604080516001815260026020820152015b60405180910390f35b34801561016957600080fd5b5061012161017836600461117a565b610507565b34801561018957600080fd5b506101216101983660046111ad565b610541565b3480156101a957600080fd5b506101d17f000000000000000000000000000000000000000000000000000000000000000081565b6040516001600160a01b039091168152602001610154565b3480156101f557600080fd5b50610121610557565b34801561020a57600080fd5b5061021e6102193660046111ad565b61056b565b60405167ffffffffffffffff9091168152602001610154565b34801561024357600080fd5b506102666102523660046111d7565b6001600160a01b0381163014949350505050565b6040519015158152602001610154565b34801561028257600080fd5b506000546001600160a01b03166101d1565b3480156102a057600080fd5b506004546102bf906001600160801b0380821691600160801b90041682565b604080516001600160801b03938416815292909116602083015201610154565b3480156102eb57600080fd5b5061030c6102fa36600461123e565b60016020526000908152604090205481565b604051908152602001610154565b34801561032657600080fd5b50610121610335366004611259565b610574565b34801561034657600080fd5b5061035a61035536600461117a565b6105a8565b60405161015491906112c6565b34801561037357600080fd5b50610121610382366004611259565b6105e3565b34801561039357600080fd5b5061030c6103a23660046112e7565b610669565b3480156103b357600080fd5b506101216103c2366004611259565b610683565b3480156103d357600080fd5b506102666103e2366004611363565b6106c1565b6002546001600160a01b031633146103fe57600080fd5b6004546104429083908390610426906001600160801b0380821691600160801b9004166105a8565b60405180604001604052803481526020016000815250336106f7565b505050565b7f00000000000000000000000000000000000000000000000000000000000000006001600160a01b03163314610497576040516391ac5e4f60e01b81523360048201526024015b60405180910390fd5b602087018035906104b1906104ac908a61123e565b610802565b146104ef576104c3602088018861123e565b60405163309afaf360e21b815263ffffffff90911660048201526020880135602482015260440161048e565b6104fe8787878787878761083e565b50505050505050565b61050f6108ab565b604080518082019091526001600160801b03928316808252919092166020909201829052600160801b90910217600455565b6105496108ab565b61055382826108d8565b5050565b61055f6108ab565b610569600061092d565b565b60005b92915050565b61057c6108ab565b600280546001600160a01b039092166001600160a01b0319928316811790915560038054909216179055565b60606105dc83836105d560408051600360f01b602082015281516002818303018152602290910190915290565b919061097d565b9392505050565b6105eb6108ab565b60405163ca5eb5e160e01b81526001600160a01b0382811660048301527f0000000000000000000000000000000000000000000000000000000000000000169063ca5eb5e190602401600060405180830381600087803b15801561064e57600080fd5b505af1158015610662573d6000803e3d6000fd5b5050505050565b600080610678868686866109e5565b519695505050505050565b61068b6108ab565b6001600160a01b0381166106b557604051631e4fbdf760e01b81526000600482015260240161048e565b6106be8161092d565b50565b60006020820180359060019083906106d9908661123e565b63ffffffff1681526020810191909152604001600020541492915050565b6106ff610efb565b600061070e8460000151610ac6565b602085015190915015610728576107288460200151610aee565b7f00000000000000000000000000000000000000000000000000000000000000006001600160a01b0316632637a450826040518060a001604052808b63ffffffff1681526020016107788c610802565b81526020018a815260200189815260200160008960200151111515815250866040518463ffffffff1660e01b81526004016107b492919061137f565b60806040518083038185885af11580156107d2573d6000803e3d6000fd5b50505050506040513d601f19601f820116820180604052508101906107f79190611447565b979650505050505050565b63ffffffff81166000908152600160205260408120548061056e5760405163f6ff4fb760e01b815263ffffffff8416600482015260240161048e565b60035460405163179c37b960e11b81526001600160a01b0390911690632f386f729061087090889088906004016114b9565b600060405180830381600087803b15801561088a57600080fd5b505af115801561089e573d6000803e3d6000fd5b5050505050505050505050565b6000546001600160a01b031633146105695760405163118cdaa760e01b815233600482015260240161048e565b63ffffffff8216600081815260016020908152604091829020849055815192835282018390527f238399d427b947898edb290f5ff0f9109849b1c3ba196a42e35f00c50a54b98b910160405180910390a15050565b600080546001600160a01b038381166001600160a01b0319831681178455604051919092169283917f8be0079c531659141344cd1fd0a4f28419497f9722a3daafe3b4186f6b6457e09190a35050565b606083600361098d826000610bd0565b61ffff16146109c1576109a1816000610bd0565b604051633a51740d60e01b815261ffff909116600482015260240161048e565b60006109cd8585610c2d565b90506109db86600183610ca6565b9695505050505050565b60408051808201909152600080825260208201527f00000000000000000000000000000000000000000000000000000000000000006001600160a01b031663ddc28c586040518060a001604052808863ffffffff168152602001610a4889610802565b8152602001878152602001868152602001851515815250306040518363ffffffff1660e01b8152600401610a7d92919061137f565b6040805180830381865afa158015610a99573d6000803e3d6000fd5b505050506040513d601f19601f82011682018060405250810190610abd91906114e8565b95945050505050565b6000813414610aea576040516304fb820960e51b815234600482015260240161048e565b5090565b60007f00000000000000000000000000000000000000000000000000000000000000006001600160a01b031663e4fe1d946040518163ffffffff1660e01b8152600401602060405180830381865afa158015610b4e573d6000803e3d6000fd5b505050506040513d601f19601f82011682018060405250810190610b729190611504565b90506001600160a01b038116610b9b576040516329b99a9560e11b815260040160405180910390fd5b6105536001600160a01b038216337f000000000000000000000000000000000000000000000000000000000000000085610d11565b6000610bdd826002611537565b83511015610c245760405162461bcd60e51b8152602060048201526014602482015273746f55696e7431365f6f75744f66426f756e647360601b604482015260640161048e565b50016002015190565b60606001600160801b03821615610c7557604080516001600160801b0319608086811b8216602084015285901b166030820152016040516020818303038152906040526105dc565b6040516001600160801b0319608085901b166020820152603001604051602081830303815290604052905092915050565b6060836003610cb6826000610bd0565b61ffff1614610cca576109a1816000610bd0565b846001610cd78551610d71565b610ce290600161154a565b8686604051602001610cf895949392919061156c565b6040516020818303038152906040529150509392505050565b604080516001600160a01b0385811660248301528416604482015260648082018490528251808303909101815260849091019091526020810180516001600160e01b03166323b872dd60e01b179052610d6b908590610da0565b50505050565b600061ffff821115610aea576040516306dfcc6560e41b8152601060048201526024810183905260440161048e565b6000610db56001600160a01b03841683610e03565b90508051600014158015610dda575080806020019051810190610dd891906115d3565b155b1561044257604051635274afe760e01b81526001600160a01b038416600482015260240161048e565b60606105dc8383600084600080856001600160a01b03168486604051610e2991906115f0565b60006040518083038185875af1925050503d8060008114610e66576040519150601f19603f3d011682016040523d82523d6000602084013e610e6b565b606091505b50915091506109db868383606082610e8b57610e8682610ed2565b6105dc565b8151158015610ea257506001600160a01b0384163b155b15610ecb57604051639996b31560e01b81526001600160a01b038516600482015260240161048e565b50806105dc565b805115610ee25780518082602001fd5b604051630a12f52160e11b815260040160405180910390fd5b604051806060016040528060008019168152602001600067ffffffffffffffff168152602001610f3e604051806040016040528060008152602001600081525090565b905290565b803563ffffffff81168114610f5757600080fd5b919050565b634e487b7160e01b600052604160045260246000fd5b600082601f830112610f8357600080fd5b813567ffffffffffffffff80821115610f9e57610f9e610f5c565b604051601f8301601f19908116603f01168101908282118183101715610fc657610fc6610f5c565b81604052838152866020858801011115610fdf57600080fd5b836020870160208301376000602085830101528094505050505092915050565b6000806040838503121561101257600080fd5b61101b83610f43565b9150602083013567ffffffffffffffff81111561103757600080fd5b61104385828601610f72565b9150509250929050565b60006060828403121561105f57600080fd5b50919050565b60008083601f84011261107757600080fd5b50813567ffffffffffffffff81111561108f57600080fd5b6020830191508360208285010111156110a757600080fd5b9250929050565b6001600160a01b03811681146106be57600080fd5b600080600080600080600060e0888a0312156110de57600080fd5b6110e8898961104d565b965060608801359550608088013567ffffffffffffffff8082111561110c57600080fd5b6111188b838c01611065565b909750955060a08a0135915061112d826110ae565b90935060c0890135908082111561114357600080fd5b506111508a828b01611065565b989b979a50959850939692959293505050565b80356001600160801b0381168114610f5757600080fd5b6000806040838503121561118d57600080fd5b61119683611163565b91506111a460208401611163565b90509250929050565b600080604083850312156111c057600080fd5b6111c983610f43565b946020939093013593505050565b60008060008060a085870312156111ed57600080fd5b6111f7868661104d565b9350606085013567ffffffffffffffff81111561121357600080fd5b61121f87828801611065565b9094509250506080850135611233816110ae565b939692955090935050565b60006020828403121561125057600080fd5b6105dc82610f43565b60006020828403121561126b57600080fd5b81356105dc816110ae565b60005b83811015611291578181015183820152602001611279565b50506000910152565b600081518084526112b2816020860160208601611276565b601f01601f19169290920160200192915050565b6020815260006105dc602083018461129a565b80151581146106be57600080fd5b600080600080608085870312156112fd57600080fd5b61130685610f43565b9350602085013567ffffffffffffffff8082111561132357600080fd5b61132f88838901610f72565b9450604087013591508082111561134557600080fd5b5061135287828801610f72565b9250506060850135611233816112d9565b60006060828403121561137557600080fd5b6105dc838361104d565b6040815263ffffffff8351166040820152602083015160608201526000604084015160a060808401526113b560e084018261129a565b90506060850151603f198483030160a08501526113d2828261129a565b60809690960151151560c08501525050506001600160a01b039190911660209091015290565b60006040828403121561140a57600080fd5b6040516040810181811067ffffffffffffffff8211171561142d5761142d610f5c565b604052825181526020928301519281019290925250919050565b60006080828403121561145957600080fd5b6040516060810167ffffffffffffffff828210818311171561147d5761147d610f5c565b816040528451835260208501519150808216821461149a57600080fd5b5060208201526114ad84604085016113f8565b60408201529392505050565b60208152816020820152818360408301376000818301604090810191909152601f909201601f19160101919050565b6000604082840312156114fa57600080fd5b6105dc83836113f8565b60006020828403121561151657600080fd5b81516105dc816110ae565b634e487b7160e01b600052601160045260246000fd5b8082018082111561056e5761056e611521565b61ffff81811683821601908082111561156557611565611521565b5092915050565b6000865161157e818460208b01611276565b6001600160f81b031960f888811b82169285019283526001600160f01b031960f089901b16600184015286901b16600382015283516115c4816004840160208801611276565b01600401979650505050505050565b6000602082840312156115e557600080fd5b81516105dc816112d9565b60008251611602818460208701611276565b919091019291505056fea2646970667358221220351dd41683d517b4b64b795ab7cea09595aad6c76591294196e59c2001e4318b64736f6c63430008160033",
  "devdoc": {
    "errors": {
      "AddressEmptyCode(address)": [
        {
          "details": "There's no code at `target` (it is not a contract)."
        }
      ],
      "AddressInsufficientBalance(address)": [
        {
          "details": "The ETH balance of the account is not enough to perform the operation."
        }
      ],
      "FailedInnerCall()": [
        {
          "details": "A call to an address target failed. The target may have reverted."
        }
      ],
      "OwnableInvalidOwner(address)": [
        {
          "details": "The owner is not a valid owner account. (eg. `address(0)`)"
        }
      ],
      "OwnableUnauthorizedAccount(address)": [
        {
          "details": "The caller account is not authorized to perform an operation."
        }
      ],
      "SafeCastOverflowedUintDowncast(uint8,uint256)": [
        {
          "details": "Value doesn't fit in an uint of `bits` size."
        }
      ],
      "SafeERC20FailedOperation(address)": [
        {
          "details": "An operation with an ERC20 token failed."
        }
      ]
    },
    "kind": "dev",
    "methods": {
      "allowInitializePath((uint32,bytes32,uint64))": {
        "details": "This indicates to the endpoint that the OApp has enabled msgs for this particular path to be received.This defaults to assuming if a peer has been set, its initialized. Can be overridden by the OApp if there is other logic to determine this.",
        "params": {
          "origin": "The origin information containing the source endpoint and sender address."
        },
        "returns": {
          "_0": "Whether the path has been initialized."
        }
      },
      "createLzReceiveOption(uint128,uint128)": {
        "params": {
          "_gas": "The gas amount for the `lzReceive` execution."
        },
        "returns": {
          "_0": "bytes-encoded option set for `lzReceive` executor."
        }
      },
      "isComposeMsgSender((uint32,bytes32,uint64),bytes,address)": {
        "details": "_origin The origin information containing the source endpoint and sender address.  - srcEid: The source chain endpoint ID.  - sender: The sender address on the src chain.  - nonce: The nonce of the message._message The lzReceive payload.Applications can optionally choose to implement separate composeMsg senders that are NOT the bridging layer.The default sender IS the OAppReceiver implementer.",
        "params": {
          "_sender": "The sender address."
        },
        "returns": {
          "_0": "isSender Is a valid sender."
        }
      },
      "lzReceive((uint32,bytes32,uint64),bytes32,bytes,address,bytes)": {
        "details": "Entry point for receiving messages or packets from the endpoint.Entry point for receiving msg/packet from the LayerZero endpoint.",
        "params": {
          "_executor": "The address of the executor for the received message.",
          "_extraData": "Additional arbitrary data provided by the corresponding executor.",
          "_guid": "The unique identifier for the received LayerZero message.",
          "_message": "The payload of the received message.",
          "_origin": "The origin information containing the source endpoint and sender address.  - srcEid: The source chain endpoint ID.  - sender: The sender address on the src chain.  - nonce: The nonce of the message."
        }
      },
      "nextNonce(uint32,bytes32)": {
        "details": "_srcEid The source endpoint ID._sender The sender address.The path nonce starts from 1. If 0 is returned it means that there is NO nonce ordered enforcement.Is required by the off-chain executor to determine the OApp expects msg execution is ordered.This is also enforced by the OApp.By default this is NOT enabled. ie. nextNonce is hardcoded to return 0.",
        "returns": {
          "nonce": "The next nonce."
        }
      },
      "oAppVersion()": {
        "returns": {
          "receiverVersion": "The version of the OAppReceiver.sol implementation.",
          "senderVersion": "The version of the OAppSender.sol implementation."
        }
      },
      "owner()": {
        "details": "Returns the address of the current owner."
      },
      "renounceOwnership()": {
        "details": "Leaves the contract without owner. It will not be possible to call `onlyOwner` functions. Can only be called by the current owner. NOTE: Renouncing ownership will leave the contract without an owner, thereby disabling any functionality that is only available to the owner."
      },
      "send(uint32,bytes)": {
        "params": {
          "_dstEid": "Destination chain's endpoint ID.",
          "_payload": "The message to send."
        }
      },
      "setDelegate(address)": {
        "details": "Only the owner/admin of the OApp can call this function.Provides the ability for a delegate to set configs, on behalf of the OApp, directly on the Endpoint contract.",
        "params": {
          "_delegate": "The address of the delegate to be set."
        }
      },
      "setPeer(uint32,bytes32)": {
        "details": "Only the owner/admin of the OApp can call this function.Indicates that the peer is trusted to send LayerZero messages to this OApp.Set this to bytes32(0) to remove the peer address.Peer is a bytes32 to accommodate non-evm chains.",
        "params": {
          "_eid": "The endpoint ID.",
          "_peer": "The address of the peer to be associated with the corresponding endpoint."
        }
      },
      "transferOwnership(address)": {
        "details": "Transfers ownership of the contract to a new account (`newOwner`). Can only be called by the current owner."
      }
    },
    "version": 1
  },
  "userdoc": {
    "kind": "user",
    "methods": {
      "allowInitializePath((uint32,bytes32,uint64))": {
        "notice": "Checks if the path initialization is allowed based on the provided origin."
      },
      "createLzReceiveOption(uint128,uint128)": {
        "notice": "Creates options for executing `lzReceive` on the destination chain."
      },
      "endpoint()": {
        "notice": "Retrieves the LayerZero endpoint associated with the OApp."
      },
      "isComposeMsgSender((uint32,bytes32,uint64),bytes,address)": {
        "notice": "Indicates whether an address is an approved composeMsg sender to the Endpoint."
      },
      "nextNonce(uint32,bytes32)": {
        "notice": "Retrieves the next nonce for a given source endpoint and sender address."
      },
      "oAppVersion()": {
        "notice": "Retrieves the OApp version information."
      },
      "peers(uint32)": {
        "notice": "Retrieves the peer (OApp) associated with a corresponding endpoint."
      },
      "send(uint32,bytes)": {
        "notice": "Sends a message from the source to destination chain."
      },
      "setDelegate(address)": {
        "notice": "Sets the delegate address for the OApp."
      },
      "setPeer(uint32,bytes32)": {
        "notice": "Sets the peer address (OApp instance) for a corresponding endpoint."
      }
    },
    "version": 1
  },
  "storageLayout": {
    "storage": [
      {
        "astId": 2742,
        "contract": "contracts/LZEscrow.sol:LZEscrow",
        "label": "_owner",
        "offset": 0,
        "slot": "0",
        "type": "t_address"
      },
      {
        "astId": 1825,
        "contract": "contracts/LZEscrow.sol:LZEscrow",
        "label": "peers",
        "offset": 0,
        "slot": "1",
        "type": "t_mapping(t_uint32,t_bytes32)"
      },
      {
        "astId": 9590,
        "contract": "contracts/LZEscrow.sol:LZEscrow",
        "label": "escrow",
        "offset": 0,
        "slot": "2",
        "type": "t_address"
      },
      {
        "astId": 9593,
        "contract": "contracts/LZEscrow.sol:LZEscrow",
        "label": "escrowContract",
        "offset": 0,
        "slot": "3",
        "type": "t_contract(Escrow)9325"
      },
      {
        "astId": 9605,
        "contract": "contracts/LZEscrow.sol:LZEscrow",
        "label": "fees",
        "offset": 0,
        "slot": "4",
        "type": "t_struct(IFees)9598_storage"
      }
    ],
    "types": {
      "t_address": {
        "encoding": "inplace",
        "label": "address",
        "numberOfBytes": "20"
      },
      "t_bytes32": {
        "encoding": "inplace",
        "label": "bytes32",
        "numberOfBytes": "32"
      },
      "t_contract(Escrow)9325": {
        "encoding": "inplace",
        "label": "contract Escrow",
        "numberOfBytes": "20"
      },
      "t_mapping(t_uint32,t_bytes32)": {
        "encoding": "mapping",
        "key": "t_uint32",
        "label": "mapping(uint32 => bytes32)",
        "numberOfBytes": "32",
        "value": "t_bytes32"
      },
      "t_struct(IFees)9598_storage": {
        "encoding": "inplace",
        "label": "struct LZEscrow.IFees",
        "members": [
          {
            "astId": 9595,
            "contract": "contracts/LZEscrow.sol:LZEscrow",
            "label": "gasLimit",
            "offset": 0,
            "slot": "0",
            "type": "t_uint128"
          },
          {
            "astId": 9597,
            "contract": "contracts/LZEscrow.sol:LZEscrow",
            "label": "gas",
            "offset": 16,
            "slot": "0",
            "type": "t_uint128"
          }
        ],
        "numberOfBytes": "32"
      },
      "t_uint128": {
        "encoding": "inplace",
        "label": "uint128",
        "numberOfBytes": "16"
      },
      "t_uint32": {
        "encoding": "inplace",
        "label": "uint32",
        "numberOfBytes": "4"
      }
    }
  }
}