{
  "address": "0x0b6A915c29D95Dd8D63B95a4D820806431fAaA66",
  "abi": [
    {
      "inputs": [],
      "stateMutability": "nonpayable",
      "type": "constructor"
    },
    {
      "inputs": [
        {
          "internalType": "address",
          "name": "sender",
          "type": "address"
        },
        {
          "internalType": "uint256",
          "name": "tokenId",
          "type": "uint256"
        },
        {
          "internalType": "address",
          "name": "owner",
          "type": "address"
        }
      ],
      "name": "ERC721IncorrectOwner",
      "type": "error"
    },
    {
      "inputs": [
        {
          "internalType": "address",
          "name": "operator",
          "type": "address"
        },
        {
          "internalType": "uint256",
          "name": "tokenId",
          "type": "uint256"
        }
      ],
      "name": "ERC721InsufficientApproval",
      "type": "error"
    },
    {
      "inputs": [
        {
          "internalType": "address",
          "name": "approver",
          "type": "address"
        }
      ],
      "name": "ERC721InvalidApprover",
      "type": "error"
    },
    {
      "inputs": [
        {
          "internalType": "address",
          "name": "operator",
          "type": "address"
        }
      ],
      "name": "ERC721InvalidOperator",
      "type": "error"
    },
    {
      "inputs": [
        {
          "internalType": "address",
          "name": "owner",
          "type": "address"
        }
      ],
      "name": "ERC721InvalidOwner",
      "type": "error"
    },
    {
      "inputs": [
        {
          "internalType": "address",
          "name": "receiver",
          "type": "address"
        }
      ],
      "name": "ERC721InvalidReceiver",
      "type": "error"
    },
    {
      "inputs": [
        {
          "internalType": "address",
          "name": "sender",
          "type": "address"
        }
      ],
      "name": "ERC721InvalidSender",
      "type": "error"
    },
    {
      "inputs": [
        {
          "internalType": "uint256",
          "name": "tokenId",
          "type": "uint256"
        }
      ],
      "name": "ERC721NonexistentToken",
      "type": "error"
    },
    {
      "inputs": [
        {
          "internalType": "address",
          "name": "owner",
          "type": "address"
        }
      ],
      "name": "OwnableInvalidOwner",
      "type": "error"
    },
    {
      "inputs": [
        {
          "internalType": "address",
          "name": "account",
          "type": "address"
        }
      ],
      "name": "OwnableUnauthorizedAccount",
      "type": "error"
    },
    {
      "anonymous": false,
      "inputs": [
        {
          "indexed": true,
          "internalType": "address",
          "name": "owner",
          "type": "address"
        },
        {
          "indexed": true,
          "internalType": "address",
          "name": "approved",
          "type": "address"
        },
        {
          "indexed": true,
          "internalType": "uint256",
          "name": "tokenId",
          "type": "uint256"
        }
      ],
      "name": "Approval",
      "type": "event"
    },
    {
      "anonymous": false,
      "inputs": [
        {
          "indexed": true,
          "internalType": "address",
          "name": "owner",
          "type": "address"
        },
        {
          "indexed": true,
          "internalType": "address",
          "name": "operator",
          "type": "address"
        },
        {
          "indexed": false,
          "internalType": "bool",
          "name": "approved",
          "type": "bool"
        }
      ],
      "name": "ApprovalForAll",
      "type": "event"
    },
    {
      "anonymous": false,
      "inputs": [
        {
          "indexed": false,
          "internalType": "uint256",
          "name": "_fromTokenId",
          "type": "uint256"
        },
        {
          "indexed": false,
          "internalType": "uint256",
          "name": "_toTokenId",
          "type": "uint256"
        }
      ],
      "name": "BatchMetadataUpdate",
      "type": "event"
    },
    {
      "anonymous": false,
      "inputs": [
        {
          "indexed": false,
          "internalType": "uint256",
          "name": "tokenId",
          "type": "uint256"
        }
      ],
      "name": "MetadataLocked",
      "type": "event"
    },
    {
      "anonymous": false,
      "inputs": [
        {
          "indexed": false,
          "internalType": "uint256",
          "name": "tokenId",
          "type": "uint256"
        }
      ],
      "name": "MetadataUnlocked",
      "type": "event"
    },
    {
      "anonymous": false,
      "inputs": [
        {
          "indexed": false,
          "internalType": "uint256",
          "name": "_tokenId",
          "type": "uint256"
        }
      ],
      "name": "MetadataUpdate",
      "type": "event"
    },
    {
      "anonymous": false,
      "inputs": [
        {
          "indexed": true,
          "internalType": "address",
          "name": "previousOwner",
          "type": "address"
        },
        {
          "indexed": true,
          "internalType": "address",
          "name": "newOwner",
          "type": "address"
        }
      ],
      "name": "OwnershipTransferred",
      "type": "event"
    },
    {
      "anonymous": false,
      "inputs": [
        {
          "indexed": false,
          "internalType": "uint256",
          "name": "tokenId",
          "type": "uint256"
        },
        {
          "indexed": false,
          "internalType": "address",
          "name": "to",
          "type": "address"
        }
      ],
      "name": "TokenMinted",
      "type": "event"
    },
    {
      "anonymous": false,
      "inputs": [
        {
          "indexed": false,
          "internalType": "uint256",
          "name": "tokenId",
          "type": "uint256"
        }
      ],
      "name": "TokenPaused",
      "type": "event"
    },
    {
      "anonymous": false,
      "inputs": [
        {
          "indexed": false,
          "internalType": "uint256",
          "name": "tokenId",
          "type": "uint256"
        }
      ],
      "name": "TokenUnpaused",
      "type": "event"
    },
    {
      "anonymous": false,
      "inputs": [
        {
          "indexed": true,
          "internalType": "address",
          "name": "from",
          "type": "address"
        },
        {
          "indexed": true,
          "internalType": "address",
          "name": "to",
          "type": "address"
        },
        {
          "indexed": true,
          "internalType": "uint256",
          "name": "tokenId",
          "type": "uint256"
        }
      ],
      "name": "Transfer",
      "type": "event"
    },
    {
      "inputs": [
        {
          "internalType": "address",
          "name": "to",
          "type": "address"
        },
        {
          "internalType": "uint256",
          "name": "tokenId",
          "type": "uint256"
        }
      ],
      "name": "approve",
      "outputs": [],
      "stateMutability": "nonpayable",
      "type": "function"
    },
    {
      "inputs": [
        {
          "internalType": "address",
          "name": "owner",
          "type": "address"
        }
      ],
      "name": "balanceOf",
      "outputs": [
        {
          "internalType": "uint256",
          "name": "",
          "type": "uint256"
        }
      ],
      "stateMutability": "view",
      "type": "function"
    },
    {
      "inputs": [
        {
          "internalType": "uint256",
          "name": "tokenId",
          "type": "uint256"
        }
      ],
      "name": "getApproved",
      "outputs": [
        {
          "internalType": "address",
          "name": "",
          "type": "address"
        }
      ],
      "stateMutability": "view",
      "type": "function"
    },
    {
      "inputs": [
        {
          "internalType": "address",
          "name": "owner",
          "type": "address"
        },
        {
          "internalType": "address",
          "name": "operator",
          "type": "address"
        }
      ],
      "name": "isApprovedForAll",
      "outputs": [
        {
          "internalType": "bool",
          "name": "",
          "type": "bool"
        }
      ],
      "stateMutability": "view",
      "type": "function"
    },
    {
      "inputs": [
        {
          "internalType": "uint256",
          "name": "tokenId",
          "type": "uint256"
        }
      ],
      "name": "lock",
      "outputs": [],
      "stateMutability": "nonpayable",
      "type": "function"
    },
    {
      "inputs": [
        {
          "internalType": "address",
          "name": "to",
          "type": "address"
        },
        {
          "internalType": "uint32",
          "name": "_dstEid",
          "type": "uint32"
        },
        {
          "internalType": "string",
          "name": "URI",
          "type": "string"
        }
      ],
      "name": "mint",
      "outputs": [],
      "stateMutability": "payable",
      "type": "function"
    },
    {
      "inputs": [],
      "name": "name",
      "outputs": [
        {
          "internalType": "string",
          "name": "",
          "type": "string"
        }
      ],
      "stateMutability": "view",
      "type": "function"
    },
    {
      "inputs": [
        {
          "internalType": "uint256",
          "name": "",
          "type": "uint256"
        }
      ],
      "name": "nftData",
      "outputs": [
        {
          "internalType": "string",
          "name": "status",
          "type": "string"
        },
        {
          "internalType": "bool",
          "name": "locked",
          "type": "bool"
        }
      ],
      "stateMutability": "view",
      "type": "function"
    },
    {
      "inputs": [],
      "name": "onlyOwnerCanMint",
      "outputs": [
        {
          "internalType": "bool",
          "name": "",
          "type": "bool"
        }
      ],
      "stateMutability": "view",
      "type": "function"
    },
    {
      "inputs": [],
      "name": "owner",
      "outputs": [
        {
          "internalType": "address",
          "name": "",
          "type": "address"
        }
      ],
      "stateMutability": "view",
      "type": "function"
    },
    {
      "inputs": [
        {
          "internalType": "uint256",
          "name": "tokenId",
          "type": "uint256"
        }
      ],
      "name": "ownerOf",
      "outputs": [
        {
          "internalType": "address",
          "name": "",
          "type": "address"
        }
      ],
      "stateMutability": "view",
      "type": "function"
    },
    {
      "inputs": [
        {
          "internalType": "uint256",
          "name": "tokenId",
          "type": "uint256"
        }
      ],
      "name": "pauseToken",
      "outputs": [],
      "stateMutability": "nonpayable",
      "type": "function"
    },
    {
      "inputs": [
        {
          "internalType": "uint256",
          "name": "",
          "type": "uint256"
        }
      ],
      "name": "pausedTokens",
      "outputs": [
        {
          "internalType": "bool",
          "name": "",
          "type": "bool"
        }
      ],
      "stateMutability": "view",
      "type": "function"
    },
    {
      "inputs": [],
      "name": "renounceOwnership",
      "outputs": [],
      "stateMutability": "nonpayable",
      "type": "function"
    },
    {
      "inputs": [
        {
          "internalType": "address",
          "name": "from",
          "type": "address"
        },
        {
          "internalType": "address",
          "name": "to",
          "type": "address"
        },
        {
          "internalType": "uint256",
          "name": "tokenId",
          "type": "uint256"
        }
      ],
      "name": "safeTransferFrom",
      "outputs": [],
      "stateMutability": "nonpayable",
      "type": "function"
    },
    {
      "inputs": [
        {
          "internalType": "address",
          "name": "from",
          "type": "address"
        },
        {
          "internalType": "address",
          "name": "to",
          "type": "address"
        },
        {
          "internalType": "uint256",
          "name": "tokenId",
          "type": "uint256"
        },
        {
          "internalType": "bytes",
          "name": "data",
          "type": "bytes"
        }
      ],
      "name": "safeTransferFrom",
      "outputs": [],
      "stateMutability": "nonpayable",
      "type": "function"
    },
    {
      "inputs": [
        {
          "internalType": "address",
          "name": "operator",
          "type": "address"
        },
        {
          "internalType": "bool",
          "name": "approved",
          "type": "bool"
        }
      ],
      "name": "setApprovalForAll",
      "outputs": [],
      "stateMutability": "nonpayable",
      "type": "function"
    },
    {
      "inputs": [
        {
          "internalType": "address",
          "name": "_lz",
          "type": "address"
        }
      ],
      "name": "setLZ",
      "outputs": [],
      "stateMutability": "nonpayable",
      "type": "function"
    },
    {
      "inputs": [
        {
          "internalType": "bool",
          "name": "_onlyOwnerCanMint",
          "type": "bool"
        }
      ],
      "name": "setOnlyOwnerCanMint",
      "outputs": [],
      "stateMutability": "nonpayable",
      "type": "function"
    },
    {
      "inputs": [
        {
          "internalType": "bytes4",
          "name": "interfaceId",
          "type": "bytes4"
        }
      ],
      "name": "supportsInterface",
      "outputs": [
        {
          "internalType": "bool",
          "name": "",
          "type": "bool"
        }
      ],
      "stateMutability": "view",
      "type": "function"
    },
    {
      "inputs": [],
      "name": "symbol",
      "outputs": [
        {
          "internalType": "string",
          "name": "",
          "type": "string"
        }
      ],
      "stateMutability": "view",
      "type": "function"
    },
    {
      "inputs": [
        {
          "internalType": "uint256",
          "name": "tokenId",
          "type": "uint256"
        }
      ],
      "name": "tokenURI",
      "outputs": [
        {
          "internalType": "string",
          "name": "",
          "type": "string"
        }
      ],
      "stateMutability": "view",
      "type": "function"
    },
    {
      "inputs": [
        {
          "internalType": "address",
          "name": "",
          "type": "address"
        },
        {
          "internalType": "uint256",
          "name": "",
          "type": "uint256"
        }
      ],
      "name": "tokensByAddress",
      "outputs": [
        {
          "internalType": "uint256",
          "name": "",
          "type": "uint256"
        }
      ],
      "stateMutability": "view",
      "type": "function"
    },
    {
      "inputs": [
        {
          "internalType": "address",
          "name": "from",
          "type": "address"
        },
        {
          "internalType": "address",
          "name": "to",
          "type": "address"
        },
        {
          "internalType": "uint256",
          "name": "tokenId",
          "type": "uint256"
        }
      ],
      "name": "transferFrom",
      "outputs": [],
      "stateMutability": "nonpayable",
      "type": "function"
    },
    {
      "inputs": [
        {
          "internalType": "address",
          "name": "newOwner",
          "type": "address"
        }
      ],
      "name": "transferOwnership",
      "outputs": [],
      "stateMutability": "nonpayable",
      "type": "function"
    },
    {
      "inputs": [
        {
          "internalType": "uint256",
          "name": "tokenId",
          "type": "uint256"
        }
      ],
      "name": "unlock",
      "outputs": [],
      "stateMutability": "nonpayable",
      "type": "function"
    },
    {
      "inputs": [
        {
          "internalType": "uint256",
          "name": "tokenId",
          "type": "uint256"
        }
      ],
      "name": "unpauseToken",
      "outputs": [],
      "stateMutability": "nonpayable",
      "type": "function"
    },
    {
      "inputs": [
        {
          "internalType": "uint256",
          "name": "tokenId",
          "type": "uint256"
        },
        {
          "internalType": "string",
          "name": "status",
          "type": "string"
        },
        {
          "internalType": "string",
          "name": "URI",
          "type": "string"
        },
        {
          "internalType": "uint32",
          "name": "_dstEid",
          "type": "uint32"
        }
      ],
      "name": "updateNFT",
      "outputs": [],
      "stateMutability": "payable",
      "type": "function"
    }
  ],
  "transactionHash": "0xf8bbe0f96b57b8484633d3dffa3ad8c56d4c8acfa9b9e7250f5977997bf15c20",
  "args": [],
  "numDeployments": 1,
  "solcInputHash": "00e869ce7f825d16687ba2725e66fa5e",
  "bytecode": "0x6080604052600f805460ff191690553480156200001b57600080fd5b5060408051808201825260208082527f4e696e6a6120417661746172204d696e74657220457874726f64696e6169726581830152825180840190935260048352634e414d4560e01b9083015233916000620000778382620001c3565b506001620000868282620001c3565b5050506001600160a01b038116620000b857604051631e4fbdf760e01b81526000600482015260240160405180910390fd5b620000c381620000ca565b506200028f565b600780546001600160a01b038381166001600160a01b0319831681179093556040519116919082907f8be0079c531659141344cd1fd0a4f28419497f9722a3daafe3b4186f6b6457e090600090a35050565b634e487b7160e01b600052604160045260246000fd5b600181811c908216806200014757607f821691505b6020821081036200016857634e487b7160e01b600052602260045260246000fd5b50919050565b601f821115620001be576000816000526020600020601f850160051c81016020861015620001995750805b601f850160051c820191505b81811015620001ba57828155600101620001a5565b5050505b505050565b81516001600160401b03811115620001df57620001df6200011c565b620001f781620001f0845462000132565b846200016e565b602080601f8311600181146200022f5760008415620002165750858301515b600019600386901b1c1916600185901b178555620001ba565b600085815260208120601f198616915b8281101562000260578886015182559484019460019091019084016200023f565b50858210156200027f5787850151600019600388901b60f8161c191681555b5050505050600190811b01905550565b61237c806200029f6000396000f3fe6080604052600436106101b75760003560e01c8063776ab634116100ec578063ba27d56f1161008a578063e985e9c511610064578063e985e9c5146104e1578063f2fde38b14610501578063fbd395f814610521578063fdd2ae641461054157600080fd5b8063ba27d56f14610481578063c87b56dd146104a1578063dd467064146104c157600080fd5b80638da5cb5b116100c65780638da5cb5b1461040e57806395d89b411461042c578063a22cb46514610441578063b88d4fde1461046157600080fd5b8063776ab634146103a657806385d098dc146103c65780638c210975146103e057600080fd5b806359eba37c11610159578063625d41e211610133578063625d41e2146103305780636352211e1461034357806370a0823114610363578063715018a61461039157600080fd5b806359eba37c146102dd5780635bb94589146102f05780636198e3391461031057600080fd5b8063095ea7b311610195578063095ea7b31461024b57806323b872dd1461026d578063393a574c1461028d57806342842e0e146102bd57600080fd5b806301ffc9a7146101bc57806306fdde03146101f1578063081812fc14610213575b600080fd5b3480156101c857600080fd5b506101dc6101d7366004611b51565b610561565b60405190151581526020015b60405180910390f35b3480156101fd57600080fd5b50610206610572565b6040516101e89190611bbe565b34801561021f57600080fd5b5061023361022e366004611bd1565b610604565b6040516001600160a01b0390911681526020016101e8565b34801561025757600080fd5b5061026b610266366004611c06565b61062d565b005b34801561027957600080fd5b5061026b610288366004611c30565b61063c565b34801561029957600080fd5b506101dc6102a8366004611bd1565b600d6020526000908152604090205460ff1681565b3480156102c957600080fd5b5061026b6102d8366004611c30565b6106cc565b61026b6102eb366004611d4d565b6106ec565b3480156102fc57600080fd5b5061026b61030b366004611ddb565b6109c6565b34801561031c57600080fd5b5061026b61032b366004611bd1565b6109e1565b61026b61033e366004611df6565b610a6d565b34801561034f57600080fd5b5061023361035e366004611bd1565b610dbd565b34801561036f57600080fd5b5061038361037e366004611e54565b610dc8565b6040519081526020016101e8565b34801561039d57600080fd5b5061026b610e10565b3480156103b257600080fd5b5061026b6103c1366004611bd1565b610e24565b3480156103d257600080fd5b50600f546101dc9060ff1681565b3480156103ec57600080fd5b506104006103fb366004611bd1565b610ea2565b6040516101e8929190611e6f565b34801561041a57600080fd5b506007546001600160a01b0316610233565b34801561043857600080fd5b50610206610f49565b34801561044d57600080fd5b5061026b61045c366004611e93565b610f58565b34801561046d57600080fd5b5061026b61047c366004611ec6565b610f63565b34801561048d57600080fd5b5061038361049c366004611c06565b610f7a565b3480156104ad57600080fd5b506102066104bc366004611bd1565b610fab565b3480156104cd57600080fd5b5061026b6104dc366004611bd1565b610fb6565b3480156104ed57600080fd5b506101dc6104fc366004611f42565b611082565b34801561050d57600080fd5b5061026b61051c366004611e54565b6110b0565b34801561052d57600080fd5b5061026b61053c366004611bd1565b6110ee565b34801561054d57600080fd5b5061026b61055c366004611e54565b61116f565b600061056c826111a3565b92915050565b60606000805461058190611f6c565b80601f01602080910402602001604051908101604052809291908181526020018280546105ad90611f6c565b80156105fa5780601f106105cf576101008083540402835291602001916105fa565b820191906000526020600020905b8154815290600101906020018083116105dd57829003601f168201915b5050505050905090565b600061060f826111c8565b506000828152600460205260409020546001600160a01b031661056c565b610638828233611201565b5050565b6001600160a01b03821661066b57604051633250574960e11b8152600060048201526024015b60405180910390fd5b600061067883833361120e565b9050836001600160a01b0316816001600160a01b0316146106c6576040516364283d7b60e01b81526001600160a01b0380861660048301526024820184905282166044820152606401610662565b50505050565b6106e783838360405180602001604052806000815250610f63565b505050565b83600854101580156106fe5750600084115b61071a5760405162461bcd60e51b815260040161066290611fa6565b600f5460ff16158061074a5750600a546001600160a01b031633148061074a57506007546001600160a01b031633145b6107665760405162461bcd60e51b815260040161066290611fd2565b6000848152600c602052604090206001015460ff16156107bd5760405162461bcd60e51b815260206004820152601260248201527113595d1859185d18481a5cc81b1bd8dad95960721b6044820152606401610662565b8251156107de576000848152600c602052604090206107dc8482612066565b505b8151156107ef576107ef8483611307565b6000808585856040516020016108089493929190612126565b60408051601f19818403018152919052905063ffffffff8216156109bf57600954604051636391215960e11b81526207a120600482015261138860248201526000916001600160a01b03169063eba007079085908590849063c72242b290604401600060405180830381865afa158015610886573d6000803e3d6000fd5b505050506040513d6000823e601f3d908101601f191682016040526108ae919081019061216a565b60006040518563ffffffff1660e01b81526004016108cf94939291906121e1565b602060405180830381865afa1580156108ec573d6000803e3d6000fd5b505050506040513d601f19601f820116820180604052508101906109109190612226565b9050803410156109575760405162461bcd60e51b81526020600482015260126024820152716c7a3a206e6f7420656e6f7567682067617360701b6044820152606401610662565b6009546040516302ab43b360e21b81526001600160a01b0390911690630aad0ecc90839061098b908790879060040161223f565b6000604051808303818588803b1580156109a457600080fd5b505af11580156109b8573d6000803e3d6000fd5b5050505050505b5050505050565b6109ce611357565b600f805460ff1916911515919091179055565b6109e9611357565b80600854101580156109fb5750600081115b610a175760405162461bcd60e51b815260040161066290611fa6565b6000818152600c602052604090819020600101805460ff19169055517f15231ceabda9f4f9436b8f17a28b36c21c8e434c821082aa1cfb3fcc994fe6c090610a629083815260200190565b60405180910390a150565b600f5460ff161580610a9d5750600a546001600160a01b0316331480610a9d57506007546001600160a01b031633145b610af45760405162461bcd60e51b815260206004820152602260248201527f4d696e74696e67206973207265737472696374656420746f20746865206f776e60448201526132b960f11b6064820152608401610662565b600880549081906000610b068361225e565b9190505550610b158482611384565b610b1f8183611307565b6001600160a01b0384166000908152600e60209081526040808320805460018101825590845282842001849055805160808101825260068183019081526561637469766560d01b60608301528152808301849052848452600c90925290912081518190610b8c9082612066565b50602091820151600191909101805460ff1916911515919091179055604051600091610bbe9187918491879101612285565b60408051601f19818403018152919052905063ffffffff841615610d7557600954604051636391215960e11b81526207a120600482015261138860248201526000916001600160a01b03169063eba007079087908590849063c72242b290604401600060405180830381865afa158015610c3c573d6000803e3d6000fd5b505050506040513d6000823e601f3d908101601f19168201604052610c64919081019061216a565b60006040518563ffffffff1660e01b8152600401610c8594939291906121e1565b602060405180830381865afa158015610ca2573d6000803e3d6000fd5b505050506040513d601f19601f82011682018060405250810190610cc69190612226565b905080341015610d0d5760405162461bcd60e51b81526020600482015260126024820152716c7a3a206e6f7420656e6f7567682067617360701b6044820152606401610662565b6009546040516302ab43b360e21b81526001600160a01b0390911690630aad0ecc908390610d41908990879060040161223f565b6000604051808303818588803b158015610d5a57600080fd5b505af1158015610d6e573d6000803e3d6000fd5b5050505050505b604080518381526001600160a01b03871660208201527f3a5398bda6f1f57d6c96834fa9bf02b5517bdc847d14312015a917ba421c31c9910160405180910390a15050505050565b600061056c826111c8565b60006001600160a01b038216610df4576040516322718ad960e21b815260006004820152602401610662565b506001600160a01b031660009081526003602052604090205490565b610e18611357565b610e22600061139e565b565b610e2c611357565b8060085410158015610e3e5750600081115b610e5a5760405162461bcd60e51b815260040161066290611fa6565b6000818152600d602052604090819020805460ff19169055517f0cfa9cc56bacd896c88effb6a4051b954fcaaf2de7ae98882e39f294ea65184390610a629083815260200190565b600c60205260009081526040902080548190610ebd90611f6c565b80601f0160208091040260200160405190810160405280929190818152602001828054610ee990611f6c565b8015610f365780601f10610f0b57610100808354040283529160200191610f36565b820191906000526020600020905b815481529060010190602001808311610f1957829003601f168201915b5050506001909301549192505060ff1682565b60606001805461058190611f6c565b6106383383836113f0565b610f6e84848461063c565b6106c68484848461148f565b600e6020528160005260406000208181548110610f9657600080fd5b90600052602060002001600091509150505481565b606061056c826115b1565b8060085410158015610fc85750600081115b610fe45760405162461bcd60e51b815260040161066290611fa6565b6007546001600160a01b0316331480611016575061100181610dbd565b6001600160a01b0316336001600160a01b0316145b6110325760405162461bcd60e51b815260040161066290611fd2565b6000818152600c6020526040908190206001908101805460ff19169091179055517f0b102582412c868866f81f4a2d5f0632027804dda110c66f39e5a9b83340c95d90610a629083815260200190565b6001600160a01b03918216600090815260056020908152604080832093909416825291909152205460ff1690565b6110b8611357565b6001600160a01b0381166110e257604051631e4fbdf760e01b815260006004820152602401610662565b6110eb8161139e565b50565b6110f6611357565b80600854101580156111085750600081115b6111245760405162461bcd60e51b815260040161066290611fa6565b6000818152600d602052604090819020805460ff19166001179055517fc2d830ac158eec7b589dfadf012044c95b8646222991556ab4cd311e38bc77d190610a629083815260200190565b611177611357565b600980546001600160a01b039092166001600160a01b03199283168117909155600a8054909216179055565b60006001600160e01b03198216632483248360e11b148061056c575061056c826116c2565b6000818152600260205260408120546001600160a01b03168061056c57604051637e27328960e01b815260048101849052602401610662565b6106e78383836001611712565b6000828152600260205260408120546001600160a01b039081169083161561123b5761123b818486611818565b6001600160a01b0381161561127957611258600085600080611712565b6001600160a01b038116600090815260036020526040902080546000190190555b6001600160a01b038516156112a8576001600160a01b0385166000908152600360205260409020805460010190555b60008481526002602052604080822080546001600160a01b0319166001600160a01b0389811691821790925591518793918516917fddf252ad1be2c89b69c2b068fc378daa952ba7f163c4a11628f55a4df523b3ef91a4949350505050565b600082815260066020526040902061131f8282612066565b506040518281527ff8e1a15aba9398e019f0b49df1a4fde98ee17ae345cb5f6b5e2c27f5033e8ce79060200160405180910390a15050565b6007546001600160a01b03163314610e225760405163118cdaa760e01b8152336004820152602401610662565b61063882826040518060200160405280600081525061187c565b600780546001600160a01b038381166001600160a01b0319831681179093556040519116919082907f8be0079c531659141344cd1fd0a4f28419497f9722a3daafe3b4186f6b6457e090600090a35050565b6001600160a01b03821661142257604051630b61174360e31b81526001600160a01b0383166004820152602401610662565b6001600160a01b03838116600081815260056020908152604080832094871680845294825291829020805460ff191686151590811790915591519182527f17307eab39ab6107e8899845ad3d59bd9653f200f220920489ca2b5937696c31910160405180910390a3505050565b6001600160a01b0383163b156106c657604051630a85bd0160e11b81526001600160a01b0384169063150b7a02906114d19033908890879087906004016122bd565b6020604051808303816000875af192505050801561150c575060408051601f3d908101601f19168201909252611509918101906122fa565b60015b611575573d80801561153a576040519150601f19603f3d011682016040523d82523d6000602084013e61153f565b606091505b50805160000361156d57604051633250574960e11b81526001600160a01b0385166004820152602401610662565b805181602001fd5b6001600160e01b03198116630a85bd0160e11b146109bf57604051633250574960e11b81526001600160a01b0385166004820152602401610662565b60606115bc826111c8565b50600082815260066020526040812080546115d690611f6c565b80601f016020809104026020016040519081016040528092919081815260200182805461160290611f6c565b801561164f5780601f106116245761010080835404028352916020019161164f565b820191906000526020600020905b81548152906001019060200180831161163257829003601f168201915b50505050509050600061166d60408051602081019091526000815290565b9050805160000361167f575092915050565b8151156116b1578082604051602001611699929190612317565b60405160208183030381529060405292505050919050565b6116ba84611893565b949350505050565b60006001600160e01b031982166380ac58cd60e01b14806116f357506001600160e01b03198216635b5e139f60e01b145b8061056c57506301ffc9a760e01b6001600160e01b031983161461056c565b808061172657506001600160a01b03821615155b156117e8576000611736846111c8565b90506001600160a01b038316158015906117625750826001600160a01b0316816001600160a01b031614155b801561177557506117738184611082565b155b1561179e5760405163a9fbf51f60e01b81526001600160a01b0384166004820152602401610662565b81156117e65783856001600160a01b0316826001600160a01b03167f8c5be1e5ebec7d5bd14f71427d1e84f3dd0314c0f7b2291e5b200ac8c7c3b92560405160405180910390a45b505b5050600090815260046020526040902080546001600160a01b0319166001600160a01b0392909216919091179055565b611823838383611908565b6106e7576001600160a01b03831661185157604051637e27328960e01b815260048101829052602401610662565b60405163177e802f60e01b81526001600160a01b038316600482015260248101829052604401610662565b611886838361196b565b6106e7600084848461148f565b606061189e826111c8565b5060006118b660408051602081019091526000815290565b905060008151116118d65760405180602001604052806000815250611901565b806118e0846119d0565b6040516020016118f1929190612317565b6040516020818303038152906040525b9392505050565b60006001600160a01b038316158015906116ba5750826001600160a01b0316846001600160a01b0316148061194257506119428484611082565b806116ba5750506000908152600460205260409020546001600160a01b03908116911614919050565b6001600160a01b03821661199557604051633250574960e11b815260006004820152602401610662565b60006119a38383600061120e565b90506001600160a01b038116156106e7576040516339e3563760e11b815260006004820152602401610662565b606060006119dd83611a63565b600101905060008167ffffffffffffffff8111156119fd576119fd611c6c565b6040519080825280601f01601f191660200182016040528015611a27576020820181803683370190505b5090508181016020015b600019016f181899199a1a9b1b9c1cb0b131b232b360811b600a86061a8153600a8504945084611a3157509392505050565b60008072184f03e93ff9f4daa797ed6e38ed64bf6a1f0160401b8310611aa25772184f03e93ff9f4daa797ed6e38ed64bf6a1f0160401b830492506040015b6d04ee2d6d415b85acef81000000008310611ace576d04ee2d6d415b85acef8100000000830492506020015b662386f26fc100008310611aec57662386f26fc10000830492506010015b6305f5e1008310611b04576305f5e100830492506008015b6127108310611b1857612710830492506004015b60648310611b2a576064830492506002015b600a831061056c5760010192915050565b6001600160e01b0319811681146110eb57600080fd5b600060208284031215611b6357600080fd5b813561190181611b3b565b60005b83811015611b89578181015183820152602001611b71565b50506000910152565b60008151808452611baa816020860160208601611b6e565b601f01601f19169290920160200192915050565b6020815260006119016020830184611b92565b600060208284031215611be357600080fd5b5035919050565b80356001600160a01b0381168114611c0157600080fd5b919050565b60008060408385031215611c1957600080fd5b611c2283611bea565b946020939093013593505050565b600080600060608486031215611c4557600080fd5b611c4e84611bea565b9250611c5c60208501611bea565b9150604084013590509250925092565b634e487b7160e01b600052604160045260246000fd5b604051601f8201601f1916810167ffffffffffffffff81118282101715611cab57611cab611c6c565b604052919050565b600067ffffffffffffffff821115611ccd57611ccd611c6c565b50601f01601f191660200190565b6000611cee611ce984611cb3565b611c82565b9050828152838383011115611d0257600080fd5b828260208301376000602084830101529392505050565b600082601f830112611d2a57600080fd5b61190183833560208501611cdb565b803563ffffffff81168114611c0157600080fd5b60008060008060808587031215611d6357600080fd5b84359350602085013567ffffffffffffffff80821115611d8257600080fd5b611d8e88838901611d19565b94506040870135915080821115611da457600080fd5b50611db187828801611d19565b925050611dc060608601611d39565b905092959194509250565b80358015158114611c0157600080fd5b600060208284031215611ded57600080fd5b61190182611dcb565b600080600060608486031215611e0b57600080fd5b611e1484611bea565b9250611e2260208501611d39565b9150604084013567ffffffffffffffff811115611e3e57600080fd5b611e4a86828701611d19565b9150509250925092565b600060208284031215611e6657600080fd5b61190182611bea565b604081526000611e826040830185611b92565b905082151560208301529392505050565b60008060408385031215611ea657600080fd5b611eaf83611bea565b9150611ebd60208401611dcb565b90509250929050565b60008060008060808587031215611edc57600080fd5b611ee585611bea565b9350611ef360208601611bea565b925060408501359150606085013567ffffffffffffffff811115611f1657600080fd5b8501601f81018713611f2757600080fd5b611f3687823560208401611cdb565b91505092959194509250565b60008060408385031215611f5557600080fd5b611f5e83611bea565b9150611ebd60208401611bea565b600181811c90821680611f8057607f821691505b602082108103611fa057634e487b7160e01b600052602260045260246000fd5b50919050565b60208082526012908201527113919508191bd95cc81b9bdd08195e1a5cdd60721b604082015260600190565b60208082526024908201527f43616c6c6572206973206e6f7420746865206f776e6572206f72204e4654206f6040820152633bb732b960e11b606082015260800190565b601f8211156106e7576000816000526020600020601f850160051c8101602086101561203f5750805b601f850160051c820191505b8181101561205e5782815560010161204b565b505050505050565b815167ffffffffffffffff81111561208057612080611c6c565b6120948161208e8454611f6c565b84612016565b602080601f8311600181146120c957600084156120b15750858301515b600019600386901b1c1916600185901b17855561205e565b600085815260208120601f198616915b828110156120f8578886015182559484019460019091019084016120d9565b50858210156121165787850151600019600388901b60f8161c191681555b5050505050600190811b01905550565b60018060a01b038516815283602082015260806040820152600061214d6080830185611b92565b828103606084015261215f8185611b92565b979650505050505050565b60006020828403121561217c57600080fd5b815167ffffffffffffffff81111561219357600080fd5b8201601f810184136121a457600080fd5b80516121b2611ce982611cb3565b8181528560208385010111156121c757600080fd5b6121d8826020830160208601611b6e565b95945050505050565b63ffffffff851681526080602082015260006122006080830186611b92565b82810360408401526122128186611b92565b915050821515606083015295945050505050565b60006020828403121561223857600080fd5b5051919050565b63ffffffff831681526040602082015260006116ba6040830184611b92565b60006001820161227e57634e487b7160e01b600052601160045260246000fd5b5060010190565b60018060a01b038416815260ff83166020820152608060408201526000608082015260a0606082015260006121d860a0830184611b92565b6001600160a01b03858116825284166020820152604081018390526080606082018190526000906122f090830184611b92565b9695505050505050565b60006020828403121561230c57600080fd5b815161190181611b3b565b60008351612329818460208801611b6e565b83519083019061233d818360208801611b6e565b0194935050505056fea2646970667358221220134dd127fc84694f6ca405b8f24b3b80f8faa6cd12adf13dc31aab5ebee4722c64736f6c63430008160033",
  "devdoc": {
    "errors": {
      "ERC721IncorrectOwner(address,uint256,address)": [
        {
          "details": "Indicates an error related to the ownership over a particular token. Used in transfers.",
          "params": {
            "owner": "Address of the current owner of a token.",
            "sender": "Address whose tokens are being transferred.",
            "tokenId": "Identifier number of a token."
          }
        }
      ],
      "ERC721InsufficientApproval(address,uint256)": [
        {
          "details": "Indicates a failure with the `operator`s approval. Used in transfers.",
          "params": {
            "operator": "Address that may be allowed to operate on tokens without being their owner.",
            "tokenId": "Identifier number of a token."
          }
        }
      ],
      "ERC721InvalidApprover(address)": [
        {
          "details": "Indicates a failure with the `approver` of a token to be approved. Used in approvals.",
          "params": {
            "approver": "Address initiating an approval operation."
          }
        }
      ],
      "ERC721InvalidOperator(address)": [
        {
          "details": "Indicates a failure with the `operator` to be approved. Used in approvals.",
          "params": {
            "operator": "Address that may be allowed to operate on tokens without being their owner."
          }
        }
      ],
      "ERC721InvalidOwner(address)": [
        {
          "details": "Indicates that an address can't be an owner. For example, `address(0)` is a forbidden owner in EIP-20. Used in balance queries.",
          "params": {
            "owner": "Address of the current owner of a token."
          }
        }
      ],
      "ERC721InvalidReceiver(address)": [
        {
          "details": "Indicates a failure with the token `receiver`. Used in transfers.",
          "params": {
            "receiver": "Address to which tokens are being transferred."
          }
        }
      ],
      "ERC721InvalidSender(address)": [
        {
          "details": "Indicates a failure with the token `sender`. Used in transfers.",
          "params": {
            "sender": "Address whose tokens are being transferred."
          }
        }
      ],
      "ERC721NonexistentToken(uint256)": [
        {
          "details": "Indicates a `tokenId` whose `owner` is the zero address.",
          "params": {
            "tokenId": "Identifier number of a token."
          }
        }
      ],
      "OwnableInvalidOwner(address)": [
        {
          "details": "The owner is not a valid owner account. (eg. `address(0)`)"
        }
      ],
      "OwnableUnauthorizedAccount(address)": [
        {
          "details": "The caller account is not authorized to perform an operation."
        }
      ]
    },
    "events": {
      "Approval(address,address,uint256)": {
        "details": "Emitted when `owner` enables `approved` to manage the `tokenId` token."
      },
      "ApprovalForAll(address,address,bool)": {
        "details": "Emitted when `owner` enables or disables (`approved`) `operator` to manage all of its assets."
      },
      "BatchMetadataUpdate(uint256,uint256)": {
        "details": "This event emits when the metadata of a range of tokens is changed. So that the third-party platforms such as NFT market could timely update the images and related attributes of the NFTs."
      },
      "MetadataUpdate(uint256)": {
        "details": "This event emits when the metadata of a token is changed. So that the third-party platforms such as NFT market could timely update the images and related attributes of the NFT."
      },
      "Transfer(address,address,uint256)": {
        "details": "Emitted when `tokenId` token is transferred from `from` to `to`."
      }
    },
    "kind": "dev",
    "methods": {
      "approve(address,uint256)": {
        "details": "See {IERC721-approve}."
      },
      "balanceOf(address)": {
        "details": "See {IERC721-balanceOf}."
      },
      "getApproved(uint256)": {
        "details": "See {IERC721-getApproved}."
      },
      "isApprovedForAll(address,address)": {
        "details": "See {IERC721-isApprovedForAll}."
      },
      "name()": {
        "details": "See {IERC721Metadata-name}."
      },
      "owner()": {
        "details": "Returns the address of the current owner."
      },
      "ownerOf(uint256)": {
        "details": "See {IERC721-ownerOf}."
      },
      "renounceOwnership()": {
        "details": "Leaves the contract without owner. It will not be possible to call `onlyOwner` functions. Can only be called by the current owner. NOTE: Renouncing ownership will leave the contract without an owner, thereby disabling any functionality that is only available to the owner."
      },
      "safeTransferFrom(address,address,uint256)": {
        "details": "See {IERC721-safeTransferFrom}."
      },
      "safeTransferFrom(address,address,uint256,bytes)": {
        "details": "See {IERC721-safeTransferFrom}."
      },
      "setApprovalForAll(address,bool)": {
        "details": "See {IERC721-setApprovalForAll}."
      },
      "symbol()": {
        "details": "See {IERC721Metadata-symbol}."
      },
      "transferFrom(address,address,uint256)": {
        "details": "See {IERC721-transferFrom}."
      },
      "transferOwnership(address)": {
        "details": "Transfers ownership of the contract to a new account (`newOwner`). Can only be called by the current owner."
      }
    },
    "version": 1
  },
  "userdoc": {
    "kind": "user",
    "methods": {},
    "version": 1
  },
  "storageLayout": {
    "storage": [
      {
        "astId": 3487,
        "contract": "contracts/NFT.sol:NFT",
        "label": "_name",
        "offset": 0,
        "slot": "0",
        "type": "t_string_storage"
      },
      {
        "astId": 3489,
        "contract": "contracts/NFT.sol:NFT",
        "label": "_symbol",
        "offset": 0,
        "slot": "1",
        "type": "t_string_storage"
      },
      {
        "astId": 3493,
        "contract": "contracts/NFT.sol:NFT",
        "label": "_owners",
        "offset": 0,
        "slot": "2",
        "type": "t_mapping(t_uint256,t_address)"
      },
      {
        "astId": 3497,
        "contract": "contracts/NFT.sol:NFT",
        "label": "_balances",
        "offset": 0,
        "slot": "3",
        "type": "t_mapping(t_address,t_uint256)"
      },
      {
        "astId": 3501,
        "contract": "contracts/NFT.sol:NFT",
        "label": "_tokenApprovals",
        "offset": 0,
        "slot": "4",
        "type": "t_mapping(t_uint256,t_address)"
      },
      {
        "astId": 3507,
        "contract": "contracts/NFT.sol:NFT",
        "label": "_operatorApprovals",
        "offset": 0,
        "slot": "5",
        "type": "t_mapping(t_address,t_mapping(t_address,t_bool))"
      },
      {
        "astId": 4626,
        "contract": "contracts/NFT.sol:NFT",
        "label": "_tokenURIs",
        "offset": 0,
        "slot": "6",
        "type": "t_mapping(t_uint256,t_string_storage)"
      },
      {
        "astId": 2742,
        "contract": "contracts/NFT.sol:NFT",
        "label": "_owner",
        "offset": 0,
        "slot": "7",
        "type": "t_address"
      },
      {
        "astId": 8494,
        "contract": "contracts/NFT.sol:NFT",
        "label": "counter",
        "offset": 0,
        "slot": "8",
        "type": "t_uint256"
      },
      {
        "astId": 8497,
        "contract": "contracts/NFT.sol:NFT",
        "label": "lz",
        "offset": 0,
        "slot": "9",
        "type": "t_contract(LZ)8447"
      },
      {
        "astId": 8499,
        "contract": "contracts/NFT.sol:NFT",
        "label": "lzAddress",
        "offset": 0,
        "slot": "10",
        "type": "t_address"
      },
      {
        "astId": 8506,
        "contract": "contracts/NFT.sol:NFT",
        "label": "data",
        "offset": 0,
        "slot": "11",
        "type": "t_string_storage"
      },
      {
        "astId": 8511,
        "contract": "contracts/NFT.sol:NFT",
        "label": "nftData",
        "offset": 0,
        "slot": "12",
        "type": "t_mapping(t_uint256,t_struct(NFTData)8504_storage)"
      },
      {
        "astId": 8515,
        "contract": "contracts/NFT.sol:NFT",
        "label": "pausedTokens",
        "offset": 0,
        "slot": "13",
        "type": "t_mapping(t_uint256,t_bool)"
      },
      {
        "astId": 8520,
        "contract": "contracts/NFT.sol:NFT",
        "label": "tokensByAddress",
        "offset": 0,
        "slot": "14",
        "type": "t_mapping(t_address,t_array(t_uint256)dyn_storage)"
      },
      {
        "astId": 8523,
        "contract": "contracts/NFT.sol:NFT",
        "label": "onlyOwnerCanMint",
        "offset": 0,
        "slot": "15",
        "type": "t_bool"
      }
    ],
    "types": {
      "t_address": {
        "encoding": "inplace",
        "label": "address",
        "numberOfBytes": "20"
      },
      "t_array(t_uint256)dyn_storage": {
        "base": "t_uint256",
        "encoding": "dynamic_array",
        "label": "uint256[]",
        "numberOfBytes": "32"
      },
      "t_bool": {
        "encoding": "inplace",
        "label": "bool",
        "numberOfBytes": "1"
      },
      "t_contract(LZ)8447": {
        "encoding": "inplace",
        "label": "contract LZ",
        "numberOfBytes": "20"
      },
      "t_mapping(t_address,t_array(t_uint256)dyn_storage)": {
        "encoding": "mapping",
        "key": "t_address",
        "label": "mapping(address => uint256[])",
        "numberOfBytes": "32",
        "value": "t_array(t_uint256)dyn_storage"
      },
      "t_mapping(t_address,t_bool)": {
        "encoding": "mapping",
        "key": "t_address",
        "label": "mapping(address => bool)",
        "numberOfBytes": "32",
        "value": "t_bool"
      },
      "t_mapping(t_address,t_mapping(t_address,t_bool))": {
        "encoding": "mapping",
        "key": "t_address",
        "label": "mapping(address => mapping(address => bool))",
        "numberOfBytes": "32",
        "value": "t_mapping(t_address,t_bool)"
      },
      "t_mapping(t_address,t_uint256)": {
        "encoding": "mapping",
        "key": "t_address",
        "label": "mapping(address => uint256)",
        "numberOfBytes": "32",
        "value": "t_uint256"
      },
      "t_mapping(t_uint256,t_address)": {
        "encoding": "mapping",
        "key": "t_uint256",
        "label": "mapping(uint256 => address)",
        "numberOfBytes": "32",
        "value": "t_address"
      },
      "t_mapping(t_uint256,t_bool)": {
        "encoding": "mapping",
        "key": "t_uint256",
        "label": "mapping(uint256 => bool)",
        "numberOfBytes": "32",
        "value": "t_bool"
      },
      "t_mapping(t_uint256,t_string_storage)": {
        "encoding": "mapping",
        "key": "t_uint256",
        "label": "mapping(uint256 => string)",
        "numberOfBytes": "32",
        "value": "t_string_storage"
      },
      "t_mapping(t_uint256,t_struct(NFTData)8504_storage)": {
        "encoding": "mapping",
        "key": "t_uint256",
        "label": "mapping(uint256 => struct NFT.NFTData)",
        "numberOfBytes": "32",
        "value": "t_struct(NFTData)8504_storage"
      },
      "t_string_storage": {
        "encoding": "bytes",
        "label": "string",
        "numberOfBytes": "32"
      },
      "t_struct(NFTData)8504_storage": {
        "encoding": "inplace",
        "label": "struct NFT.NFTData",
        "members": [
          {
            "astId": 8501,
            "contract": "contracts/NFT.sol:NFT",
            "label": "status",
            "offset": 0,
            "slot": "0",
            "type": "t_string_storage"
          },
          {
            "astId": 8503,
            "contract": "contracts/NFT.sol:NFT",
            "label": "locked",
            "offset": 0,
            "slot": "1",
            "type": "t_bool"
          }
        ],
        "numberOfBytes": "64"
      },
      "t_uint256": {
        "encoding": "inplace",
        "label": "uint256",
        "numberOfBytes": "32"
      }
    }
  }
}