{
  "address": "0x6BfcEb8c109359f66542583878E3E16f66E09b30",
  "abi": [
    {
      "inputs": [
        {
          "internalType": "address",
          "name": "_endpoint",
          "type": "address"
        },
        {
          "internalType": "address",
          "name": "_owner",
          "type": "address"
        }
      ],
      "stateMutability": "nonpayable",
      "type": "constructor"
    },
    {
      "inputs": [
        {
          "internalType": "address",
          "name": "target",
          "type": "address"
        }
      ],
      "name": "AddressEmptyCode",
      "type": "error"
    },
    {
      "inputs": [
        {
          "internalType": "address",
          "name": "account",
          "type": "address"
        }
      ],
      "name": "AddressInsufficientBalance",
      "type": "error"
    },
    {
      "inputs": [],
      "name": "FailedInnerCall",
      "type": "error"
    },
    {
      "inputs": [],
      "name": "InvalidDelegate",
      "type": "error"
    },
    {
      "inputs": [],
      "name": "InvalidEndpointCall",
      "type": "error"
    },
    {
      "inputs": [
        {
          "internalType": "uint16",
          "name": "optionType",
          "type": "uint16"
        }
      ],
      "name": "InvalidOptionType",
      "type": "error"
    },
    {
      "inputs": [],
      "name": "LzTokenUnavailable",
      "type": "error"
    },
    {
      "inputs": [
        {
          "internalType": "uint32",
          "name": "eid",
          "type": "uint32"
        }
      ],
      "name": "NoPeer",
      "type": "error"
    },
    {
      "inputs": [
        {
          "internalType": "uint256",
          "name": "msgValue",
          "type": "uint256"
        }
      ],
      "name": "NotEnoughNative",
      "type": "error"
    },
    {
      "inputs": [
        {
          "internalType": "address",
          "name": "addr",
          "type": "address"
        }
      ],
      "name": "OnlyEndpoint",
      "type": "error"
    },
    {
      "inputs": [
        {
          "internalType": "uint32",
          "name": "eid",
          "type": "uint32"
        },
        {
          "internalType": "bytes32",
          "name": "sender",
          "type": "bytes32"
        }
      ],
      "name": "OnlyPeer",
      "type": "error"
    },
    {
      "inputs": [
        {
          "internalType": "address",
          "name": "owner",
          "type": "address"
        }
      ],
      "name": "OwnableInvalidOwner",
      "type": "error"
    },
    {
      "inputs": [
        {
          "internalType": "address",
          "name": "account",
          "type": "address"
        }
      ],
      "name": "OwnableUnauthorizedAccount",
      "type": "error"
    },
    {
      "inputs": [
        {
          "internalType": "uint8",
          "name": "bits",
          "type": "uint8"
        },
        {
          "internalType": "uint256",
          "name": "value",
          "type": "uint256"
        }
      ],
      "name": "SafeCastOverflowedUintDowncast",
      "type": "error"
    },
    {
      "inputs": [
        {
          "internalType": "address",
          "name": "token",
          "type": "address"
        }
      ],
      "name": "SafeERC20FailedOperation",
      "type": "error"
    },
    {
      "anonymous": false,
      "inputs": [
        {
          "indexed": true,
          "internalType": "address",
          "name": "previousOwner",
          "type": "address"
        },
        {
          "indexed": true,
          "internalType": "address",
          "name": "newOwner",
          "type": "address"
        }
      ],
      "name": "OwnershipTransferred",
      "type": "event"
    },
    {
      "anonymous": false,
      "inputs": [
        {
          "indexed": false,
          "internalType": "uint32",
          "name": "eid",
          "type": "uint32"
        },
        {
          "indexed": false,
          "internalType": "bytes32",
          "name": "peer",
          "type": "bytes32"
        }
      ],
      "name": "PeerSet",
      "type": "event"
    },
    {
      "inputs": [
        {
          "components": [
            {
              "internalType": "uint32",
              "name": "srcEid",
              "type": "uint32"
            },
            {
              "internalType": "bytes32",
              "name": "sender",
              "type": "bytes32"
            },
            {
              "internalType": "uint64",
              "name": "nonce",
              "type": "uint64"
            }
          ],
          "internalType": "struct Origin",
          "name": "origin",
          "type": "tuple"
        }
      ],
      "name": "allowInitializePath",
      "outputs": [
        {
          "internalType": "bool",
          "name": "",
          "type": "bool"
        }
      ],
      "stateMutability": "view",
      "type": "function"
    },
    {
      "inputs": [
        {
          "internalType": "uint128",
          "name": "_gas",
          "type": "uint128"
        },
        {
          "internalType": "uint128",
          "name": "_value",
          "type": "uint128"
        }
      ],
      "name": "createLzReceiveOption",
      "outputs": [
        {
          "internalType": "bytes",
          "name": "",
          "type": "bytes"
        }
      ],
      "stateMutability": "pure",
      "type": "function"
    },
    {
      "inputs": [],
      "name": "endpoint",
      "outputs": [
        {
          "internalType": "contract ILayerZeroEndpointV2",
          "name": "",
          "type": "address"
        }
      ],
      "stateMutability": "view",
      "type": "function"
    },
    {
      "inputs": [],
      "name": "fees",
      "outputs": [
        {
          "internalType": "uint128",
          "name": "gasLimit",
          "type": "uint128"
        },
        {
          "internalType": "uint128",
          "name": "gas",
          "type": "uint128"
        }
      ],
      "stateMutability": "view",
      "type": "function"
    },
    {
      "inputs": [
        {
          "components": [
            {
              "internalType": "uint32",
              "name": "srcEid",
              "type": "uint32"
            },
            {
              "internalType": "bytes32",
              "name": "sender",
              "type": "bytes32"
            },
            {
              "internalType": "uint64",
              "name": "nonce",
              "type": "uint64"
            }
          ],
          "internalType": "struct Origin",
          "name": "",
          "type": "tuple"
        },
        {
          "internalType": "bytes",
          "name": "",
          "type": "bytes"
        },
        {
          "internalType": "address",
          "name": "_sender",
          "type": "address"
        }
      ],
      "name": "isComposeMsgSender",
      "outputs": [
        {
          "internalType": "bool",
          "name": "",
          "type": "bool"
        }
      ],
      "stateMutability": "view",
      "type": "function"
    },
    {
      "inputs": [
        {
          "components": [
            {
              "internalType": "uint32",
              "name": "srcEid",
              "type": "uint32"
            },
            {
              "internalType": "bytes32",
              "name": "sender",
              "type": "bytes32"
            },
            {
              "internalType": "uint64",
              "name": "nonce",
              "type": "uint64"
            }
          ],
          "internalType": "struct Origin",
          "name": "_origin",
          "type": "tuple"
        },
        {
          "internalType": "bytes32",
          "name": "_guid",
          "type": "bytes32"
        },
        {
          "internalType": "bytes",
          "name": "_message",
          "type": "bytes"
        },
        {
          "internalType": "address",
          "name": "_executor",
          "type": "address"
        },
        {
          "internalType": "bytes",
          "name": "_extraData",
          "type": "bytes"
        }
      ],
      "name": "lzReceive",
      "outputs": [],
      "stateMutability": "payable",
      "type": "function"
    },
    {
      "inputs": [
        {
          "internalType": "uint32",
          "name": "",
          "type": "uint32"
        },
        {
          "internalType": "bytes32",
          "name": "",
          "type": "bytes32"
        }
      ],
      "name": "nextNonce",
      "outputs": [
        {
          "internalType": "uint64",
          "name": "nonce",
          "type": "uint64"
        }
      ],
      "stateMutability": "view",
      "type": "function"
    },
    {
      "inputs": [],
      "name": "oAppVersion",
      "outputs": [
        {
          "internalType": "uint64",
          "name": "senderVersion",
          "type": "uint64"
        },
        {
          "internalType": "uint64",
          "name": "receiverVersion",
          "type": "uint64"
        }
      ],
      "stateMutability": "pure",
      "type": "function"
    },
    {
      "inputs": [],
      "name": "owner",
      "outputs": [
        {
          "internalType": "address",
          "name": "",
          "type": "address"
        }
      ],
      "stateMutability": "view",
      "type": "function"
    },
    {
      "inputs": [
        {
          "internalType": "uint32",
          "name": "eid",
          "type": "uint32"
        }
      ],
      "name": "peers",
      "outputs": [
        {
          "internalType": "bytes32",
          "name": "peer",
          "type": "bytes32"
        }
      ],
      "stateMutability": "view",
      "type": "function"
    },
    {
      "inputs": [
        {
          "internalType": "uint32",
          "name": "_dstEid",
          "type": "uint32"
        },
        {
          "internalType": "bytes",
          "name": "payload",
          "type": "bytes"
        },
        {
          "internalType": "bytes",
          "name": "_options",
          "type": "bytes"
        },
        {
          "internalType": "bool",
          "name": "_payInLzToken",
          "type": "bool"
        }
      ],
      "name": "quote",
      "outputs": [
        {
          "internalType": "uint256",
          "name": "nativeFee",
          "type": "uint256"
        }
      ],
      "stateMutability": "view",
      "type": "function"
    },
    {
      "inputs": [],
      "name": "renounceOwnership",
      "outputs": [],
      "stateMutability": "nonpayable",
      "type": "function"
    },
    {
      "inputs": [
        {
          "internalType": "uint32",
          "name": "_dstEid",
          "type": "uint32"
        },
        {
          "internalType": "bytes",
          "name": "_payload",
          "type": "bytes"
        }
      ],
      "name": "send",
      "outputs": [],
      "stateMutability": "payable",
      "type": "function"
    },
    {
      "inputs": [
        {
          "internalType": "address",
          "name": "_delegate",
          "type": "address"
        }
      ],
      "name": "setDelegate",
      "outputs": [],
      "stateMutability": "nonpayable",
      "type": "function"
    },
    {
      "inputs": [
        {
          "internalType": "uint128",
          "name": "_gasLimit",
          "type": "uint128"
        },
        {
          "internalType": "uint128",
          "name": "_gas",
          "type": "uint128"
        }
      ],
      "name": "setFees",
      "outputs": [],
      "stateMutability": "nonpayable",
      "type": "function"
    },
    {
      "inputs": [
        {
          "internalType": "address",
          "name": "_nft",
          "type": "address"
        }
      ],
      "name": "setNFT",
      "outputs": [],
      "stateMutability": "nonpayable",
      "type": "function"
    },
    {
      "inputs": [
        {
          "internalType": "uint32",
          "name": "_eid",
          "type": "uint32"
        },
        {
          "internalType": "bytes32",
          "name": "_peer",
          "type": "bytes32"
        }
      ],
      "name": "setPeer",
      "outputs": [],
      "stateMutability": "nonpayable",
      "type": "function"
    },
    {
      "inputs": [
        {
          "internalType": "address",
          "name": "newOwner",
          "type": "address"
        }
      ],
      "name": "transferOwnership",
      "outputs": [],
      "stateMutability": "nonpayable",
      "type": "function"
    }
  ],
  "transactionHash": "0x86e400dfccdd0cfd342317219c0923e066c66c3214f5c335e3a1f74e00dd5977",
  "args": [
    "0x6EDCE65403992e310A62460808c4b910D972f10f",
    "0x2B402F4aec180Fb4188Df7a703d3861f0137855B"
  ],
  "numDeployments": 2,
  "solcInputHash": "6580cc2eaed9df358031f0964f8b4aed",
  "bytecode": "0x60e06040526207a12060a05261c35060c05271c3500000000000000000000000000007a1206004553480156200003457600080fd5b50604051620019a0380380620019a083398101604081905262000057916200019f565b81818181806001600160a01b0381166200008b57604051631e4fbdf760e01b81526000600482015260240160405180910390fd5b620000968162000132565b506001600160a01b038083166080528116620000c557604051632d618d8160e21b815260040160405180910390fd5b60805160405163ca5eb5e160e01b81526001600160a01b0383811660048301529091169063ca5eb5e190602401600060405180830381600087803b1580156200010d57600080fd5b505af115801562000122573d6000803e3d6000fd5b50505050505050505050620001d7565b600080546001600160a01b038381166001600160a01b0319831681178455604051919092169283917f8be0079c531659141344cd1fd0a4f28419497f9722a3daafe3b4186f6b6457e09190a35050565b80516001600160a01b03811681146200019a57600080fd5b919050565b60008060408385031215620001b357600080fd5b620001be8362000182565b9150620001ce6020840162000182565b90509250929050565b6080516117836200021d600039600081816101af01528181610449015281816105d60152818161072a01528181610a9401528181610b8b0152610c4401526117836000f3fe6080604052600436106101095760003560e01c80638da5cb5b11610095578063ca5eb5e111610064578063ca5eb5e114610347578063eba0070714610367578063f2fde38b14610387578063f56e9c66146103a7578063ff7bd03d146103c757600080fd5b80638da5cb5b146102765780639af1d35a14610294578063bb0b6a53146102df578063c72242b21461031a57600080fd5b80633400288b116100dc5780633400288b1461017d5780635e280f111461019d578063715018a6146101e95780637d25a05e146101fe57806382413eac1461023757600080fd5b80630aad0ecc1461010e57806313137d651461012357806317442b701461013657806332760c7a1461015d575b600080fd5b61012161011c366004611098565b6103e7565b005b61012161013136600461115c565b610447565b34801561014257600080fd5b50604080516001815260026020820152015b60405180910390f35b34801561016957600080fd5b50610121610178366004611213565b610507565b34801561018957600080fd5b50610121610198366004611246565b610541565b3480156101a957600080fd5b506101d17f000000000000000000000000000000000000000000000000000000000000000081565b6040516001600160a01b039091168152602001610154565b3480156101f557600080fd5b50610121610557565b34801561020a57600080fd5b5061021e610219366004611246565b61056b565b60405167ffffffffffffffff9091168152602001610154565b34801561024357600080fd5b50610266610252366004611270565b6001600160a01b0381163014949350505050565b6040519015158152602001610154565b34801561028257600080fd5b506000546001600160a01b03166101d1565b3480156102a057600080fd5b506004546102bf906001600160801b0380821691600160801b90041682565b604080516001600160801b03938416815292909116602083015201610154565b3480156102eb57600080fd5b5061030c6102fa3660046112d7565b60016020526000908152604090205481565b604051908152602001610154565b34801561032657600080fd5b5061033a610335366004611213565b610574565b6040516101549190611342565b34801561035357600080fd5b50610121610362366004611355565b6105af565b34801561037357600080fd5b5061030c610382366004611380565b610635565b34801561039357600080fd5b506101216103a2366004611355565b61064f565b3480156103b357600080fd5b506101216103c2366004611355565b61068d565b3480156103d357600080fd5b506102666103e23660046113fc565b6106c1565b6002546001600160a01b031633146103fe57600080fd5b6004546104429083908390610426906001600160801b0380821691600160801b900416610574565b60405180604001604052803481526020016000815250336106f7565b505050565b7f00000000000000000000000000000000000000000000000000000000000000006001600160a01b03163314610497576040516391ac5e4f60e01b81523360048201526024015b60405180910390fd5b602087018035906104b1906104ac908a6112d7565b610802565b146104ef576104c360208801886112d7565b60405163309afaf360e21b815263ffffffff90911660048201526020880135602482015260440161048e565b6104fe8787878787878761083e565b50505050505050565b61050f610944565b604080518082019091526001600160801b03928316808252919092166020909201829052600160801b90910217600455565b610549610944565b6105538282610971565b5050565b61055f610944565b61056960006109c6565b565b60005b92915050565b60606105a883836105a160408051600360f01b602082015281516002818303018152602290910190915290565b9190610a16565b9392505050565b6105b7610944565b60405163ca5eb5e160e01b81526001600160a01b0382811660048301527f0000000000000000000000000000000000000000000000000000000000000000169063ca5eb5e190602401600060405180830381600087803b15801561061a57600080fd5b505af115801561062e573d6000803e3d6000fd5b5050505050565b60008061064486868686610a7e565b519695505050505050565b610657610944565b6001600160a01b03811661068157604051631e4fbdf760e01b81526000600482015260240161048e565b61068a816109c6565b50565b610695610944565b600280546001600160a01b039092166001600160a01b0319928316811790915560038054909216179055565b60006020820180359060019083906106d990866112d7565b63ffffffff1681526020810191909152604001600020541492915050565b6106ff610f94565b600061070e8460000151610b5f565b602085015190915015610728576107288460200151610b87565b7f00000000000000000000000000000000000000000000000000000000000000006001600160a01b0316632637a450826040518060a001604052808b63ffffffff1681526020016107788c610802565b81526020018a815260200189815260200160008960200151111515815250866040518463ffffffff1660e01b81526004016107b4929190611418565b60806040518083038185885af11580156107d2573d6000803e3d6000fd5b50505050506040513d601f19601f820116820180604052508101906107f791906114e0565b979650505050505050565b63ffffffff81166000908152600160205260408120548061056e5760405163f6ff4fb760e01b815263ffffffff8416600482015260240161048e565b600080808061084f888a018a611552565b929650909450925090506001600160a01b0384166108d257600354604051633f68d85960e21b81526001600160a01b039091169063fda361649061089b908690869086906004016115d2565b600060405180830381600087803b1580156108b557600080fd5b505af11580156108c9573d6000803e3d6000fd5b50505050610937565b60035460405163d0def52160e01b81526001600160a01b039091169063d0def5219061090490879085906004016115fd565b600060405180830381600087803b15801561091e57600080fd5b505af1158015610932573d6000803e3d6000fd5b505050505b5050505050505050505050565b6000546001600160a01b031633146105695760405163118cdaa760e01b815233600482015260240161048e565b63ffffffff8216600081815260016020908152604091829020849055815192835282018390527f238399d427b947898edb290f5ff0f9109849b1c3ba196a42e35f00c50a54b98b910160405180910390a15050565b600080546001600160a01b038381166001600160a01b0319831681178455604051919092169283917f8be0079c531659141344cd1fd0a4f28419497f9722a3daafe3b4186f6b6457e09190a35050565b6060836003610a26826000610c69565b61ffff1614610a5a57610a3a816000610c69565b604051633a51740d60e01b815261ffff909116600482015260240161048e565b6000610a668585610cc6565b9050610a7486600183610d3f565b9695505050505050565b60408051808201909152600080825260208201527f00000000000000000000000000000000000000000000000000000000000000006001600160a01b031663ddc28c586040518060a001604052808863ffffffff168152602001610ae189610802565b8152602001878152602001868152602001851515815250306040518363ffffffff1660e01b8152600401610b16929190611418565b6040805180830381865afa158015610b32573d6000803e3d6000fd5b505050506040513d601f19601f82011682018060405250810190610b569190611629565b95945050505050565b6000813414610b83576040516304fb820960e51b815234600482015260240161048e565b5090565b60007f00000000000000000000000000000000000000000000000000000000000000006001600160a01b031663e4fe1d946040518163ffffffff1660e01b8152600401602060405180830381865afa158015610be7573d6000803e3d6000fd5b505050506040513d601f19601f82011682018060405250810190610c0b9190611645565b90506001600160a01b038116610c34576040516329b99a9560e11b815260040160405180910390fd5b6105536001600160a01b038216337f000000000000000000000000000000000000000000000000000000000000000085610daa565b6000610c76826002611678565b83511015610cbd5760405162461bcd60e51b8152602060048201526014602482015273746f55696e7431365f6f75744f66426f756e647360601b604482015260640161048e565b50016002015190565b60606001600160801b03821615610d0e57604080516001600160801b0319608086811b8216602084015285901b166030820152016040516020818303038152906040526105a8565b6040516001600160801b0319608085901b166020820152603001604051602081830303815290604052905092915050565b6060836003610d4f826000610c69565b61ffff1614610d6357610a3a816000610c69565b846001610d708551610e0a565b610d7b90600161168b565b8686604051602001610d919594939291906116ad565b6040516020818303038152906040529150509392505050565b604080516001600160a01b0385811660248301528416604482015260648082018490528251808303909101815260849091019091526020810180516001600160e01b03166323b872dd60e01b179052610e04908590610e39565b50505050565b600061ffff821115610b83576040516306dfcc6560e41b8152601060048201526024810183905260440161048e565b6000610e4e6001600160a01b03841683610e9c565b90508051600014158015610e73575080806020019051810190610e719190611714565b155b1561044257604051635274afe760e01b81526001600160a01b038416600482015260240161048e565b60606105a88383600084600080856001600160a01b03168486604051610ec29190611731565b60006040518083038185875af1925050503d8060008114610eff576040519150601f19603f3d011682016040523d82523d6000602084013e610f04565b606091505b5091509150610a74868383606082610f2457610f1f82610f6b565b6105a8565b8151158015610f3b57506001600160a01b0384163b155b15610f6457604051639996b31560e01b81526001600160a01b038516600482015260240161048e565b50806105a8565b805115610f7b5780518082602001fd5b604051630a12f52160e11b815260040160405180910390fd5b604051806060016040528060008019168152602001600067ffffffffffffffff168152602001610fd7604051806040016040528060008152602001600081525090565b905290565b803563ffffffff81168114610ff057600080fd5b919050565b634e487b7160e01b600052604160045260246000fd5b600082601f83011261101c57600080fd5b813567ffffffffffffffff8082111561103757611037610ff5565b604051601f8301601f19908116603f0116810190828211818310171561105f5761105f610ff5565b8160405283815286602085880101111561107857600080fd5b836020870160208301376000602085830101528094505050505092915050565b600080604083850312156110ab57600080fd5b6110b483610fdc565b9150602083013567ffffffffffffffff8111156110d057600080fd5b6110dc8582860161100b565b9150509250929050565b6000606082840312156110f857600080fd5b50919050565b60008083601f84011261111057600080fd5b50813567ffffffffffffffff81111561112857600080fd5b60208301915083602082850101111561114057600080fd5b9250929050565b6001600160a01b038116811461068a57600080fd5b600080600080600080600060e0888a03121561117757600080fd5b61118189896110e6565b965060608801359550608088013567ffffffffffffffff808211156111a557600080fd5b6111b18b838c016110fe565b909750955060a08a013591506111c682611147565b90935060c089013590808211156111dc57600080fd5b506111e98a828b016110fe565b989b979a50959850939692959293505050565b80356001600160801b0381168114610ff057600080fd5b6000806040838503121561122657600080fd5b61122f836111fc565b915061123d602084016111fc565b90509250929050565b6000806040838503121561125957600080fd5b61126283610fdc565b946020939093013593505050565b60008060008060a0858703121561128657600080fd5b61129086866110e6565b9350606085013567ffffffffffffffff8111156112ac57600080fd5b6112b8878288016110fe565b90945092505060808501356112cc81611147565b939692955090935050565b6000602082840312156112e957600080fd5b6105a882610fdc565b60005b8381101561130d5781810151838201526020016112f5565b50506000910152565b6000815180845261132e8160208601602086016112f2565b601f01601f19169290920160200192915050565b6020815260006105a86020830184611316565b60006020828403121561136757600080fd5b81356105a881611147565b801515811461068a57600080fd5b6000806000806080858703121561139657600080fd5b61139f85610fdc565b9350602085013567ffffffffffffffff808211156113bc57600080fd5b6113c88883890161100b565b945060408701359150808211156113de57600080fd5b506113eb8782880161100b565b92505060608501356112cc81611372565b60006060828403121561140e57600080fd5b6105a883836110e6565b6040815263ffffffff8351166040820152602083015160608201526000604084015160a0608084015261144e60e0840182611316565b90506060850151603f198483030160a085015261146b8282611316565b60809690960151151560c08501525050506001600160a01b039190911660209091015290565b6000604082840312156114a357600080fd5b6040516040810181811067ffffffffffffffff821117156114c6576114c6610ff5565b604052825181526020928301519281019290925250919050565b6000608082840312156114f257600080fd5b6040516060810167ffffffffffffffff828210818311171561151657611516610ff5565b816040528451835260208501519150808216821461153357600080fd5b5060208201526115468460408501611491565b60408201529392505050565b6000806000806080858703121561156857600080fd5b843561157381611147565b935060208501359250604085013567ffffffffffffffff8082111561159757600080fd5b6115a38883890161100b565b935060608701359150808211156115b957600080fd5b506115c68782880161100b565b91505092959194509250565b8381526060602082015260006115eb6060830185611316565b8281036040840152610a748185611316565b6001600160a01b038316815260406020820181905260009061162190830184611316565b949350505050565b60006040828403121561163b57600080fd5b6105a88383611491565b60006020828403121561165757600080fd5b81516105a881611147565b634e487b7160e01b600052601160045260246000fd5b8082018082111561056e5761056e611662565b61ffff8181168382160190808211156116a6576116a6611662565b5092915050565b600086516116bf818460208b016112f2565b6001600160f81b031960f888811b82169285019283526001600160f01b031960f089901b16600184015286901b16600382015283516117058160048401602088016112f2565b01600401979650505050505050565b60006020828403121561172657600080fd5b81516105a881611372565b600082516117438184602087016112f2565b919091019291505056fea2646970667358221220d249026c98901530b5ebf6e11a50a87edb75fefa4c303b4529a7f4330f7336d764736f6c63430008160033",
  "devdoc": {
    "errors": {
      "AddressEmptyCode(address)": [
        {
          "details": "There's no code at `target` (it is not a contract)."
        }
      ],
      "AddressInsufficientBalance(address)": [
        {
          "details": "The ETH balance of the account is not enough to perform the operation."
        }
      ],
      "FailedInnerCall()": [
        {
          "details": "A call to an address target failed. The target may have reverted."
        }
      ],
      "OwnableInvalidOwner(address)": [
        {
          "details": "The owner is not a valid owner account. (eg. `address(0)`)"
        }
      ],
      "OwnableUnauthorizedAccount(address)": [
        {
          "details": "The caller account is not authorized to perform an operation."
        }
      ],
      "SafeCastOverflowedUintDowncast(uint8,uint256)": [
        {
          "details": "Value doesn't fit in an uint of `bits` size."
        }
      ],
      "SafeERC20FailedOperation(address)": [
        {
          "details": "An operation with an ERC20 token failed."
        }
      ]
    },
    "kind": "dev",
    "methods": {
      "allowInitializePath((uint32,bytes32,uint64))": {
        "details": "This indicates to the endpoint that the OApp has enabled msgs for this particular path to be received.This defaults to assuming if a peer has been set, its initialized. Can be overridden by the OApp if there is other logic to determine this.",
        "params": {
          "origin": "The origin information containing the source endpoint and sender address."
        },
        "returns": {
          "_0": "Whether the path has been initialized."
        }
      },
      "createLzReceiveOption(uint128,uint128)": {
        "params": {
          "_gas": "The gas amount for the `lzReceive` execution."
        },
        "returns": {
          "_0": "bytes-encoded option set for `lzReceive` executor."
        }
      },
      "isComposeMsgSender((uint32,bytes32,uint64),bytes,address)": {
        "details": "_origin The origin information containing the source endpoint and sender address.  - srcEid: The source chain endpoint ID.  - sender: The sender address on the src chain.  - nonce: The nonce of the message._message The lzReceive payload.Applications can optionally choose to implement separate composeMsg senders that are NOT the bridging layer.The default sender IS the OAppReceiver implementer.",
        "params": {
          "_sender": "The sender address."
        },
        "returns": {
          "_0": "isSender Is a valid sender."
        }
      },
      "lzReceive((uint32,bytes32,uint64),bytes32,bytes,address,bytes)": {
        "details": "Entry point for receiving messages or packets from the endpoint.Entry point for receiving msg/packet from the LayerZero endpoint.",
        "params": {
          "_executor": "The address of the executor for the received message.",
          "_extraData": "Additional arbitrary data provided by the corresponding executor.",
          "_guid": "The unique identifier for the received LayerZero message.",
          "_message": "The payload of the received message.",
          "_origin": "The origin information containing the source endpoint and sender address.  - srcEid: The source chain endpoint ID.  - sender: The sender address on the src chain.  - nonce: The nonce of the message."
        }
      },
      "nextNonce(uint32,bytes32)": {
        "details": "_srcEid The source endpoint ID._sender The sender address.The path nonce starts from 1. If 0 is returned it means that there is NO nonce ordered enforcement.Is required by the off-chain executor to determine the OApp expects msg execution is ordered.This is also enforced by the OApp.By default this is NOT enabled. ie. nextNonce is hardcoded to return 0.",
        "returns": {
          "nonce": "The next nonce."
        }
      },
      "oAppVersion()": {
        "returns": {
          "receiverVersion": "The version of the OAppReceiver.sol implementation.",
          "senderVersion": "The version of the OAppSender.sol implementation."
        }
      },
      "owner()": {
        "details": "Returns the address of the current owner."
      },
      "renounceOwnership()": {
        "details": "Leaves the contract without owner. It will not be possible to call `onlyOwner` functions. Can only be called by the current owner. NOTE: Renouncing ownership will leave the contract without an owner, thereby disabling any functionality that is only available to the owner."
      },
      "send(uint32,bytes)": {
        "params": {
          "_dstEid": "Destination chain's endpoint ID.",
          "_payload": "The message to send."
        }
      },
      "setDelegate(address)": {
        "details": "Only the owner/admin of the OApp can call this function.Provides the ability for a delegate to set configs, on behalf of the OApp, directly on the Endpoint contract.",
        "params": {
          "_delegate": "The address of the delegate to be set."
        }
      },
      "setPeer(uint32,bytes32)": {
        "details": "Only the owner/admin of the OApp can call this function.Indicates that the peer is trusted to send LayerZero messages to this OApp.Set this to bytes32(0) to remove the peer address.Peer is a bytes32 to accommodate non-evm chains.",
        "params": {
          "_eid": "The endpoint ID.",
          "_peer": "The address of the peer to be associated with the corresponding endpoint."
        }
      },
      "transferOwnership(address)": {
        "details": "Transfers ownership of the contract to a new account (`newOwner`). Can only be called by the current owner."
      }
    },
    "version": 1
  },
  "userdoc": {
    "kind": "user",
    "methods": {
      "allowInitializePath((uint32,bytes32,uint64))": {
        "notice": "Checks if the path initialization is allowed based on the provided origin."
      },
      "createLzReceiveOption(uint128,uint128)": {
        "notice": "Creates options for executing `lzReceive` on the destination chain."
      },
      "endpoint()": {
        "notice": "Retrieves the LayerZero endpoint associated with the OApp."
      },
      "isComposeMsgSender((uint32,bytes32,uint64),bytes,address)": {
        "notice": "Indicates whether an address is an approved composeMsg sender to the Endpoint."
      },
      "nextNonce(uint32,bytes32)": {
        "notice": "Retrieves the next nonce for a given source endpoint and sender address."
      },
      "oAppVersion()": {
        "notice": "Retrieves the OApp version information."
      },
      "peers(uint32)": {
        "notice": "Retrieves the peer (OApp) associated with a corresponding endpoint."
      },
      "send(uint32,bytes)": {
        "notice": "Sends a message from the source to destination chain."
      },
      "setDelegate(address)": {
        "notice": "Sets the delegate address for the OApp."
      },
      "setPeer(uint32,bytes32)": {
        "notice": "Sets the peer address (OApp instance) for a corresponding endpoint."
      }
    },
    "version": 1
  },
  "storageLayout": {
    "storage": [
      {
        "astId": 2742,
        "contract": "contracts/LZ.sol:LZ",
        "label": "_owner",
        "offset": 0,
        "slot": "0",
        "type": "t_address"
      },
      {
        "astId": 1825,
        "contract": "contracts/LZ.sol:LZ",
        "label": "peers",
        "offset": 0,
        "slot": "1",
        "type": "t_mapping(t_uint32,t_bytes32)"
      },
      {
        "astId": 9341,
        "contract": "contracts/LZ.sol:LZ",
        "label": "nft",
        "offset": 0,
        "slot": "2",
        "type": "t_address"
      },
      {
        "astId": 9344,
        "contract": "contracts/LZ.sol:LZ",
        "label": "nftContract",
        "offset": 0,
        "slot": "3",
        "type": "t_contract(NFT)10455"
      },
      {
        "astId": 9356,
        "contract": "contracts/LZ.sol:LZ",
        "label": "fees",
        "offset": 0,
        "slot": "4",
        "type": "t_struct(IFees)9349_storage"
      }
    ],
    "types": {
      "t_address": {
        "encoding": "inplace",
        "label": "address",
        "numberOfBytes": "20"
      },
      "t_bytes32": {
        "encoding": "inplace",
        "label": "bytes32",
        "numberOfBytes": "32"
      },
      "t_contract(NFT)10455": {
        "encoding": "inplace",
        "label": "contract NFT",
        "numberOfBytes": "20"
      },
      "t_mapping(t_uint32,t_bytes32)": {
        "encoding": "mapping",
        "key": "t_uint32",
        "label": "mapping(uint32 => bytes32)",
        "numberOfBytes": "32",
        "value": "t_bytes32"
      },
      "t_struct(IFees)9349_storage": {
        "encoding": "inplace",
        "label": "struct LZ.IFees",
        "members": [
          {
            "astId": 9346,
            "contract": "contracts/LZ.sol:LZ",
            "label": "gasLimit",
            "offset": 0,
            "slot": "0",
            "type": "t_uint128"
          },
          {
            "astId": 9348,
            "contract": "contracts/LZ.sol:LZ",
            "label": "gas",
            "offset": 16,
            "slot": "0",
            "type": "t_uint128"
          }
        ],
        "numberOfBytes": "32"
      },
      "t_uint128": {
        "encoding": "inplace",
        "label": "uint128",
        "numberOfBytes": "16"
      },
      "t_uint32": {
        "encoding": "inplace",
        "label": "uint32",
        "numberOfBytes": "4"
      }
    }
  }
}